:1027960075A15575A1AAE5B954F84405F5B9E4F54E
:0227A600A1226E
:1027A800EF4E600D05A105A105A1EF1F70F21E8077
:0227B800EF220E
:10275300AD07AC06ED4C600E7FE87E031227A8EDB3
:072763001D70F11C80EE2245
:04003E0043C6102283
:1022A300C29FD29EC29DC2CDC2CC438780900459A7
:1022B30012080C00000056E47B0AFAF9F89004595E
:1022C300E0FCA3E0FDA3E0FEA3E0FF12074F9004B0
:1022D3005DEBF0900459E0FCA3E0FDA3E0FEA3E076
:1022E300FFE47B0AFAF9F812074F90045912080029
:1022F30090045DE0C3940574809480401F9004595A
:10230300E0FCA3E0FDA3E0FEA3E02401FFE43EFE26
:10231300E43DFDE43CFC900459120800E589540FA8
:102323004420F58943C9A0900459A3A3A3E0F4046E
:09233300F58DD28ED299D29C22C4
:0827DF003098FDC298AF992269
:0827E7008F993099FDC299227F
:0A27CB00C2C7D2C5D2C475C2F822FD
:0827EF0030C0FDC2C0AFC122E1
:0827F7008FC130C1FDD2C122E7
:10276A0075A15575A1AAEF600543B101800353B164
:07277A00FEE4F5A1F5FF22CA
:03280D008FFF2218
:0A27D5005392CF439330439030221B
:0727FF005392DF43932022F7
:0728060043922043932022BE
:10271F00D2951227FFD2947F057E001227A8C2956B
:0A272F007F027E001227A8C2942248
:1027BA00C2951227FFD2947F027E001227A8D295D3
:0127CA0022EC
:1026C900C2941227FFC2957F017E001227A8D294D7
:0F26D9007F027E001227A8C294122806D29522F3
:1026E800C2941227FFD2957F017E001227A8D294A8
:0C26F8007F027E001227A8C29402280670
:10000600E4900466F0D295D2941228067F02FE8010
:100016001D30951F900466E004F0E0D394FA7480D6
:10002600948040061227BA7F01227F017E001227A4
:08003600A880DEC2947F0022C5
:10255C00900466EFF0C2941227FF7F027E001227D0
:10256C00A8E4900467F0900467E0C3940874809426
:10257C00805041900466E0FF5480C413131354013F
:10258C0024FF9295EF25E0F07F017E001227A8D260
:10259C00947F017E001227A8900467E06407700303
:1025AC00122806C2947F017E001227A8900467E0CF
:0525BC0004F080B222D2
:10261D00900465EFF0E4900467F07F02FE1227A8A6
:10262D00122806E4900466F0900466E0C3940874E2
:10263D008094805021C2947F027E001227A8D294EC
:10264D00900467E0FF25E0F0309503E004F090047E
:10265D0066E004F080D2900465E070051226E880F3
:0A266D00031226C9900467E0FF2263
:101F590043483535345F4849445F54505F56313002
:101F6900302044454255470A2044454255475F447D
:101F79004154413A204A756C203239203230323589
:101F890031363A31313A3331200A006368697020B9
:101F9900756E697175652069643A25303278202536
:101FA90030327820253032780A00436F70797269AF
:101FB90067687428632932303235205349474D45C3
:101FC9004E582C20416C6C207269676874732072BA
:101FD900657365727665642E0A00436F6D6D65726F
:101FE9006369616C20757365206F66207468697315
:101FF900206F70656E736F7572636520736F667499
:10200900776172652069732070726F68696269749B
:1020190065642E0A0056696F6C61746F727320775C
:10202900696C6C20626520696E7665737469676195
:1020390074656420666F72206C6567616C207265D7
:0F20490073706F6E736962696C6974792E0A0027
:1019D10060B801D45AB10485030A4D0001082805F5
:1019E1004B320305000000000000000000000095DC
:1019F10033FF282AB506000000BA022D00000000BE
:101A0100000000000000000F789465020700000448
:101A1100A41200871C006F2B005C41005163005130
:101A210000000000000000000000000000000000B5
:101A310000000000000000000000000000000000A5
:101A410000000000000102030405060708090A0B53
:101A51000C0D0E0F101112131415161718191A1B4D
:101A61001C1D000102030405060708090A0B0C0FDF
:101A71000E0D101112131415161718191B1C1D1E0B
:101A81001F202122232425262728FFFF60500184BF
:101A91000000000000000000000000000000000045
:101AA1000000000000000000000000000000000035
:101AB1000000000000000000000000000000000025
:101AC1000000000000000000000000000000000015
:101AD1000000000000000000000000000000000005
:101AE10052028C0000000000000000000000000015
:101AF100000000000050029E0E0353004900470001
:101B01004D0045004E005800602802AF28035500E3
:101B11005300420032004900490043005F00430086
:101B2100540050005F0043004F004E00540052002B
:041B31004F004C0015
:102129001227967F057E001227531222A37BFF7A7E
:102139001F7959120F9A7BFF7A1F7994903FFCE41B
:1021490093FF74019390045FCFF0A3EFF0903FFEEB
:10215900E493FF740193900461CFF0A3EFF0903FF3
:10216900FAE493FF740193900463CFF0A3EFF012A4
:102179000F9A7BFF7A1F79B3120F9A7BFF7A1F7927
:10218900E3120F9A7BFF7A20791E120F9A7E007F45
:10219900507D007B017A017984120883E490028ED4
:1021A900F0A3F0A3F0A3F090029DF0122058900440
:1021B90044740AF09002AE7410F09002D77428F0BB
:1021C9001225C1D2AF90044DE060FAC291D288D2F3
:1021D900A87F0112276AE4FF12280D12267780F6DC
:0300030002278150
:10278100C0E0C083C082C2A890029D7401F0D082D3
:05279100D083D0E0320E
:1024DF002530327809004754393131302044415486
:1024EF004120555044415445204661696C0A0047CC
:1024FF0054393131302044415441205550444154D6
:10250F004520535543434553530A00436F6F72643D
:10251F00696E61746520496E666F0A000A00475440
:10252F003931313020494E49542050524F430A001F
:10253F0063707420783A256420793A25640A007212
:0D254F006174696F3A2025662025660A0038
:101B350060B802D85AB10485030A4D00010828058A
:101B45004B32030500000000000000000000009576
:101B550033FF282AB506000000BA022D0000000058
:101B6500000000000000000F7894650207000004E3
:101B7500A41200871C006F2B005C410051630051CB
:101B85000000000000000000000000000000000050
:101B95000000000000000000000000000000000040
:101BA50000000000000102030405060708090A0BEE
:101BB5000C0D0E0F101112131415161718191A1BE8
:101BC5001C1D000102030405060708090A0B0C0F7A
:101BD5000E0D101112131415161718191B1C1D1EA6
:101BE5001F202122232425262728FFFF5403908127
:101BF5004F8157815F8167816F8177817F81878180
:031C05008F819735
:0E2456007B017A007984900463F07F407E80E1
:1024640090045EEEF0A3EFF0A3EBF0A3EAF0A3E98F
:10247400F0E4900465F012271F7FBA12255C120065
:102484000690045EE0FF12255C12000690045EA331
:10249400E0FF12255C120006E4900464F0900463EB
:1024A400E0FFA3E0FEC39F5029900460E0FBA3E09B
:1024B400FAA3E0F98E82758300120664FF12255C8C
:1024C400120006900465EFF07008900464E004F0D4
:0B24D40080CB1227BA900465E0FF22C5
:0E233C007B017A007984900463F07F4E7E81ED
:10234A0090045EEEF0A3EFF0A3EBF0A3EAF0A3E9AA
:10235A00F012271F7FBA12255C12000690045EE075
:10236A00FF12255C12000690045EA3E0FF12255CB2
:10237A0012000612271F7FBB12255C120006E4908A
:10238A000464F0900463E0FFA3E0FEC39F502EEFC5
:10239A0014B506047F0080027F0112261D90046096
:1023AA00E0FBA3E0FAA3E0F9900464E0F582758308
:1023BA0000EF1206A3900464E004F080C60227BA74
:101C8000E4900459F0A3F0FDA3F09000847402F0F6
:101C9000141224567DB8E4900459F0900459E0FFE2
:101CA000C39D501A74D82FF582E43402F583E0FF07
:101CB00090045AE02FF0900459E004F080DD900485
:101CC0005AE0F404A3F07B017A0279D8900463ED22
:101CD000F07F477E801224647B017A04795B900454
:101CE000637401F07FFF7E801224647B007A0079A8
:101CF000019004637401F07F007E811224647B01F3
:101D00007A0079849004637401F07FFF7E8012234F
:101D10004A90045BE0FF900084E0FE6F6030D29157
:101D20007BFF7A2479DFEEFF90045FE4F0A3EFF00D
:101D3000120F9A7BFF7A2479E5120F9A7FF47E01C5
:101D4000122753C2917FF47E0112275380C37BFF79
:101D50007A2479FE120F9AE4900084F0041224563B
:101D60007B017A007984900463740EF07F407E8159
:101D700012234A90008BE0FE90008AE07C00240051
:101D8000FFEC3E90028EF0A3EFF090008DE0FE900D
:101D9000008CE02400FFEC3E900290F0A3EFF07B7B
:101DA000FF7A25791A120F9AE4900459F090045999
:101DB000E0FFC3940E7480948050257BFF7A2479D1
:101DC000DF74842FF582E43400F583E0FF90045F34
:101DD000E4F0A3EFF0120F9A900459E004F080CDE4
:101DE0007BFF7A25792B120F9A7FC8803B740112F2
:101DF000233C900084E030E736740912233C9000C5
:101E000086E0702BA3E07027A3E07023A3E0701F8F
:101E1000900084F07B017A00798490046304F07F61
:101E20004E7E811224647F0F7E0012275380BE7F76
:021E300000228E
:102058007BFF7A25792D120F9A1227D5D296C2B214
:102068007F077E001227A8C2967F787E001227A8D5
:10207800D2967F3C7E00122753D2B2121C80121EC9
:102088003290028EE0FCA3E0FDE41201F1A804A95D
:1020980005AA06AB07E4FFFE7D807C4512014F9040
:1020A8000295120800900290E0FCA3E0FDE4120102
:1020B800F1A804A905AA06AB07E4FFFE7D807C45CC
:1020C80012014F9002991208007BFF7A25793F9000
:1020D800028EE0FFA3E090045FCFF0A3EFF0900240
:1020E80090E0FFA3E0900461CFF0A3EFF0120F9A05
:1020F8007BFF7A25794E900295E0FCA3E0FDA3E0F2
:10210800FEA3E0FF90045F120800900299E0FCA390
:10211800E0FDA3E0FEA3E0FF900463120800020FB5
:012128009A1C
:1026770090029DE0640170201216C3EF640170118F
:102687007B017A01798490028CE0FCA3E0FD1213B0
:0B269700B2E490029DF0D2A87F002268
:1016C3007B017A04795D90046374011223459004CD
:1016D3005DE0FE54807002FF22EE540F90045DF033
:1016E300E4900459F0A3F0900444E0FF90045DE01B
:1016F300D39F4002EFF0E490045BF090045DE0FFC1
:1017030090045BE0FE6F7003021960EE25E0249005
:10171300F582E43403F583E0FEA3E0FF7B017A0066
:1017230079849004637405F012234A900084E07076
:1017330019FFFEFDFCA3E0F8A3E0F9A3E0FAA3E0A0
:10174300FBC31207EF7003021957900084E0FD7E7C
:10175300007401A805088005C333CE33CED8F9FF42
:10176300900459E04EF0A3E04FF0ED75F008A42487
:1017730084F582E43401F5837401F0900084E0FF82
:1017830075F008A42485F582E43401F583EFF09025
:101793000294E064019000867076E0FE900085E09C
:1017A3007C002400FDEC3EFCE41201F1900295E084
:1017B300F8A3E0F9A3E0FAA3E0FB12004612022A21
:1017C300900084E075F008A42488F582E43401F5E0
:1017D30083EEF0A3EFF0900088E0FE900087E07CBA
:1017E300002400FDEC3EFCE41201F1900299E0F8C4
:1017F300A3E0F9A3E0FAA3E0FB12004612022A9049
:101803000084E075F008A42486F582E43401807432
:10181300E0FE900085E07C002400FDEC3EFCE41239
:1018230001F1900295E0F8A3E0F9A3E0FAA3E0FB4D
:1018330012004612022A900084E075F008A4248660
:10184300F582E43401F583EEF0A3EFF0900088E035
:10185300FE900087E07C002400FDEC3EFCE41201D6
:10186300F1900299E0F8A3E0F9A3E0FAA3E0FB12F8
:10187300004612022A900084E075F008A42488F53B
:1018830082E43401F583EEF0A3EFF0900084E0FFEF
:1018930075F008A4248AF582E43401F583E4F0A307
:1018A3007430F0900292E06401704EEF75F008A47A
:1018B3002486F582E43401F583E0FEA3E0FFD394AC
:1018C30000EE9410900084E0401375F008A4248681
:1018D300F582E43401F583E4F0A3F0801CFDC3E456
:1018E3009FFF74109EFEED75F008A42486F582E434
:1018F3003401F583EEF0A3EFF0900293E0640170FE
:1019030053900084E0FF75F008A42488F582E43442
:1019130001F583E0FCA3E0FDD39400EC94104014A4
:10192300EF75F008A42488F582E43401F583E4F02C
:10193300A3F08020900084E0FFC3E49DFD74109C1D
:10194300FCEF75F008A42488F582E43401F583ECF8
:10195300F0A3EDF090045BE004F00216FEE49004C3
:101963005BF0900444E0FF90045BE0FE6F6036A8F8
:10197300067E007401088005C333CE33CED8F9FF49
:10198300900459E05EFEA3E05F4E7011A3E075F092
:1019930008A42484F582E43401F583E4F090045B25
:1019A300E004F080BD900459E0FFA3E090028CCFE7
:1019B300F0A3EFF0E490045CF07B017A04795C908F
:0E19C300046304F07F4E7E811224647F0122B3
:102739006461746120666C61736820726561643AD2
:0A27490020002530327809000A0054
:101E32007585C0E4900459F0900459E0C394067487
:101E4200809480501EE0FF25E0F58475868E748CA8
:101E52002FF582E43404F583E58EF0900459E00412
:101E6200F080D57BFF7A277939120F9AE4900459D2
:101E7200F0900459E0FFC394067480948050257B4F
:101E8200FF7A27794B748C2FF582E43404F583E0D2
:101E9200FF90045FE4F0A3EFF0120F9A900459E070
:101EA20004F080CD7BFF7A277951120F9A90048C2F
:101EB200E0FFF47007A3E0F470028015EF54806035
:101EC2000F9002927401F090048CE0547FF0800530
:101ED200E4900292F090048EE0FFF47007A3E0F425
:101EE20070028015EF5480600F9002937401F0909D
:101EF200048EE0547FF08005E4900293F090049108
:101F0200E0640A601490028EE07002A3E0703290E6
:101F12000290E07002A3E0702890048CE0FEA3E03F
:101F22007C002400FFEC3E90028EF0A3EFF09004C0
:101F32008EE0FEA3E02400FFEC3E900290F0A3EFBF
:101F4200F0900490E0640170047F0180027F0090B1
:071F52000294EFF07F012271
:1021E9001201010000000040861AE3E50000010227
:1021F9000001040309040922A1020942150025016D
:1022090075019501810295078101750809519501AB
:10221900810205012600107510550E65110930352A
:10222900004679088102260010464C0509318102D1
:10223900050D09488102C0050D0904A101850105A3
:102249000D27FFFF000075109501095681020954F9
:102259001500257F950175088102850209559501AB
:10226900250AB10285030600FF09C5150026FF00EE
:102279007508960001B102C009022200010100801F
:1022890020090400000103000000092100010001E8
:0A2299002200000705820340000147
:101C080041044D004103EC004203EA00004203A8EE
:101C180000004104440041045200605403EF0000F6
:101C280000000000000000000000000000000000AC
:101C3800000000000000000000000000000000009C
:101C4800000000000000000000000000000000008C
:101C5800000000000000000000000000000000007C
:101C6800000000000000000000000000000000006C
:071C780000004204500000CF
:1025C100E5A164547055900444E070037406F090E2
:1025D1000444E0D3940A4003740AF0C2EAE4F5E249
:1025E10075D18053D1FB53E2BF75E50075E44275A7
:1025F100EB0475D41275ED0075EC0053EAF375DC4C
:1026010002F5D5F5E343E22943D10175D8FF75E120
:0C26110007D2EA90044DF09003ECF02298
:10270400900462EDF0FF7E0078427C007D011206A9
:0B27140025900462E0F5D553D4FC22B0
:030043000208AF01
:1008AF00C0E0C0F0C083C082C0D075D01020D90383
:1008BF00020EE1E5D9543F7003020ED224E070031B
:1008CF00020D2624F0601A240E6003020EDF75D588
:1008DF0000E5D454FC4402F5D49003ECE4F0020E8E
:1008EF00DFE5DC54FC4402F5DCAFDB900457E4F0A9
:1008FF00A3EFF0900452E4F0900457E07004A3E0EB
:10090F0064086003020CEE900007E0FF9003EDE433
:10091F00F0A3EFF0E07F00FE9003EDF0A3EFF09077
:10092F000006E0FDEDFF9003EDEEF0A3EFF0900475
:10093F0057E4F0A3F0900001E0900443F090000022
:10094F00E054606044900443E024FE7003020CF610
:10095F00147003020CF624FA24FD4003020CF62453
:10096F000B7023900002E0FF64026004EFB40313E6
:10097F00900000EFF0900444E0900001F0900457D5
:10098F00020CDD020CEE020CEE900443E0B40B00FF
:10099F004003020CEC9009ABF8282873020CC30239
:1009AF000C0E020CEC020C49020CEC020BCC0209EF
:1009BF00CC020CEC020BD8020BFD020CF6900003DC
:1009CF00E024FE6071147003020AEE24E17003024A
:1009DF000A9524216003020B4478AA7C037D017BD6
:1009EF00FF7A2179E97E007F121206259003EAE053
:1009FF007002A3E0700A9003A8E07002A3E0601CED
:100A0F009003EAE0FCA3E09003B2F0ECA3F09003B4
:100A1F00A8E0FCA3E09003B4F0ECA3F090045374AF
:100A2F0001F0A37403F0A374AAF0900457E4F0A3A9
:100A3F007412F0020B4C78AA7C037D017BFF7A22A3
:100A4F0079817E007F22120625900444E075F041E3
:100A5F00A42441FEE435F09003A6F0A3CEF090035A
:100A6F00A6E0FCA3E09003C3F0ECA3F09004537452
:100A7F0001F0A37403F0A374AAF0900457E4F0A359
:100A8F007422F0020B4C78AA7C037D017BFF7A2243
:100A9F0079407E007F0812062578B27C037D017BAA
:100AAF00FF7A2179FF7E007F381206259004567455
:100ABF0038F0900444E090044EF09004537401F029
:100ACF00A37403F0A374AAF09003A6E0FFA3E09031
:100ADF000457CFF0A3EFF09004527401F0805E90B2
:100AEF000002E0603724FE601604704990045374CE
:100AFF0001F0A37402F0A3749EF09002AE801190E7
:100B0F0004537401F0A37402F0A374AFF09002D7F2
:100B1F00E0FF900457E4F0A3EFF0802190045374AA
:100B2F00FFF0A37421F0A374FBF0900457E4F0A33B
:100B3F007404F0800890045774FFF0A3F0900457EA
:100B4F00E0FEA3E0FFD39003EEE09F9003EDE09E65
:100B5F004005EEF0A3EFF0EFF47002EEF470030235
:100B6F000CF69003EDE0FEA3E0FFC39440EE94007B
:100B7F0040067E007F408000900457EEF0A3EFF018
:100B8F00900457E0FEA3E0FF78007C007D01900405
:100B9F0053E0FBA3E0FAA3E0F9120625900457E017
:100BAF00FEA3E0FFC39003EEE09FF09003EDE09E05
:100BBF00F0900454EE8FF01206C5020CF69000026E
:100BCF00E0FF9003EDE4020CE69003A4E090000038
:100BDF00F0C39003EEE094019003EDE09400500316
:100BEF00020CF6900457E4F0A304F0020CF6900008
:100BFF0002E09003A4F090044D7401F0020CF69003
:100C0F000000E0541F6402702E900004E024FE6088
:100C1F001D2481600E14701CE5D454BC4402F5D41D
:100C2F00020CF6E5D254BC4402F5D2020CF653D4B2
:100C3F0073020CF6020CEE020CEE900000E0541F53
:100C4F00FD701F900003E0FE900002E0FBEB6401DB
:100C5F004E700D9022889330E503020CF6020CEED5
:100C6F00807DED6402704B900003E0FE900002E087
:100C7F00FDED4E703B900005E0FE900004E0FDEDB1
:100C8F00FFEE702AEF24FE60112481601714701E8E
:100C9F00E5D454BF4403F5D4804DE5D4547F440CC0
:100CAF00F5D48043E5D254BF4403F5D28039802F69
:100CBF00802D802B900000E4F0A3F09003EDE0FE78
:100CCF00A3E0FFC39402EE94009004574008E4F0B1
:100CDF00A37402F08011EEF0A3EFF0800A80009071
:100CEF00045774FFF0A3F0900457E0FEA3E0FFBE9B
:100CFF00FF0FBFFF0C90044374FFF075DCCF020EA3
:100D0F00DFD3EF9440EE940050048FDD800375DD48
:100D1F000075DCC0020EDF900443E024FB70030279
:100D2F000EBB146003020ECA9003EDE0FEA3E0FFBA
:100D3F00C39440EE9400400A7C007D407E007F40CB
:100D4F008000900457EEF0A3EFF0900452E0700390
:100D5F00020E72900457A3E09003A5F090044FE4A5
:100D6F00F090044EE07003020E36900456E0FFC37D
:100D7F0074419FFE9003A5E0C39E405AEFFD74415E
:100D8F009DFDE49400FCCEECCEEDC0E074FF2FF996
:100D9F00E43421FA7BFFE9C0E090044FE02400F92E
:100DAF00E43400C8E9C8FC7D01D0E0F9D0E0FF12BF
:100DBF000625900456E0FFC374419FFF90044FE057
:100DCF002FF09003A5E0C39FF090044EE014F09035
:100DDF000456E4F0803F9003A5E0FF7E0090045698
:100DEF00E024FFF9E43421FA7BFFE9C0E090044FDF
:100DFF00E02400F9E43400C8E9C8FC7D01D0E0F933
:100E0F001206259003A5E0FF900456E02FF0900303
:100E1F00A5E4F0801290044EE06003020D70900480
:100E2F00567408F0020D709003A5E0FF60627E001B
:100E3F00900456E02440F9E43422FA7BFFE9C0E045
:100E4F0090044FE02400F9E43400C8E9C8FC7D01A8
:100E5F00D0E0F91206259003A5E0FF900456E02F8D
:100E6F00F0802D900457E0FEA3E0FF78007C007D1A
:100E7F0001900453E0FBA3E0FAA3E0F912062590DA
:100E8F000457E0FEA3E0FF900454EE8FF01206C566
:100E9F00900457E0FEA3E0FFC39003EEE09FF090B5
:100EAF0003EDE09EF08FDD63DC4080249003EDA323
:100EBF00E0FFE5E354804FF5E3800375DD0075DC5B
:100ECF0002800DAFDB900457E4F0A3EFF063DC80FA
:100EDF00C2D930D81790044DE4F09003ECF075DCD4
:100EEF000275D412F5E3C2DAC2D9C2D830DA23C2FE
:100EFF00DAE5DA30E21FE5A220E7FB75A15575A10F
:100F0F00AA75A98143870275A15575A1AA75A90074
:100F1F00800375D8FFD0D0D082D083D0F0D0E0320C
:1013B200900459EBF0A3EAF0A3E9F0A3ECF0A3ED5B
:1013C200F0E490045FF0A3F0A3F0ED4C700C9004F5
:1013D20050E07002A3E07002FF22E5A164546003B2
:1013E2000216C09003EF04F0900444E0FF75F00889
:1013F200A424F0F582E43403F5837401F0EF75F070
:1014020008A424F1F582E43403F5837401F0E49036
:10141200045FF090045EF0900444E0FF90045EE00C
:10142200FE6F7003021581C8EEC874017E00088049
:1014320005C333CE33CED8F9FF90045CE05EFCA343
:10144200E05F4C700F900450E05EFEA3E05F4E70D0
:101452000302157890045EE0FF74017E00C8EFC8B5
:10146200088005C333CE33CED8F9FF90045CE05E2A
:10147200FEA3E05F4E7006900460E004F090045911
:10148200E0FBA3E0FAA3E0F990045EE0FF75F00848
:10149200A4F58285F083120664FE90045FE075F085
:1014A20008A424F0F582E43403F583EEF0EF75F03E
:1014B20008A4FFE92FF9EA35F0FA90000112066458
:1014C200FF90045FE0FE75F008A424F1F582E43495
:1014D20003F583EFF09000021206DBFFEE75F008D1
:1014E200A424F2F582E43403F583EFF090000212B3
:1014F20006DBE5F0FF90045FE0FE75F008A424F33C
:10150200F582E43403F583EFF09000041206DBFF6A
:10151200EE75F008A424F4F582E43403F583EFF0C9
:101522009000041206DBE5F0FF90045FE0FE75F028
:1015320008A424F5F582E43403F583EFF090000665
:101542001206DBFFEE75F008A424F6F582E43403FC
:10155200F583EFF09000061206DBE5F0FF90045FE2
:10156200E075F008A424F7F582E43403F583EFF084
:1015720090045FE004F090045EE004F0021419901D
:10158200045FE0FF900461F090045CE0FDA3E09052
:101592000450CDF0A3EDF0EF700590045F04F090DD
:1015A200045FE090045EF0900444E0FF90045EE08B
:1015B2006F7003021642E0FF75F008A424F0F58272
:1015C200E43403F583E4F0EF75F008A424F1F58226
:1015D200E43403F583E4F0EF75F008A424F2F58215
:1015E200E43403F583E4F0EF75F008A424F3F58204
:1015F200E43403F583E4F0EF75F008A424F4F582F3
:10160200E43403F583E4F0EF75F008A424F5F582E1
:10161200E43403F583E4F0EF75F008A424F6F582D0
:10162200E43403F583E4F0EF75F008A424F7F582BF
:10163200E43403F583E4F090045EE004F00215A9BB
:10164200900461E0FF70047F018000900444E0FE9A
:1016520075F008A424F2F582E43403F583EFF0EE8A
:1016620075F008A4240490045EF09003ECE070FA94
:101672009003EC7401F0FB7A0379EF90045EE0FFD3
:10168200D3944040047D408003CDEFCD12270490D7
:10169200045EE0D39440401B9003ECE070FA9003A8
:1016A200EC7401F0FB7A04792F90045EE024C0FD13
:1016B200122704900460E06005E4F00214107F0138
:0116C2002205
:10004600EC4D6011E8497017ED33EC3304600DE4B4
:10005600FCFFFEFD22E933E8330470F80202961233
:10006600026158046009E4CC248150062850090234
:1000760002A028400302029DC0E0EB4A7044B9800A
:1000860006D0E0FB02028CEF4E701CBD8008EBFF31
:10009600EAFEE9FD80EBE98DF0A4FEE5F002012F12
:1000A600E9CDF9EAFEEBFFEF89F0A4FCE5F0CE8995
:1000B600F0A42EFFE435F0CD89F0A42DFEE435F052
:1000C6008067EF4E7005BD80D780C3EF8BF0A4AC80
:1000D600F0EE8BF0A42CFCE435F0F8EF8AF0A42CBB
:1000E600E5F038FCE433CB8DF0A42CFCE5F03BF8CE
:1000F600EE8AF0A42CFCE5F038F8E433CF89F0A4BE
:100106002CFCE5F038CF3400CE89F0A42FFFE5F0C3
:100116003EFEE433C98DF0A42EFEE5F039CD8AF01B
:10012600A42FFFE5F03EFEE43DFD33D0E0FB500793
:100136000BBB000F0202A0EC2CFCEF33FFEE33FEEC
:06014600ED33FD0202781A
:10014C000202A0EC5D046005E859047003020296FB
:10015C00120261580460F6EC4860F2EC7004FDFE8B
:10016C00FF22C860DB2481C85009C3986002500686
:10017C0002029D9850CAF582E9294B4A7005AB8260
:10018C0002028C75F0007C1A7880C3EF9BEE9AED1E
:10019C0099400DC3EF9BFFEE9AFEED99FDE842F0FE
:1001AC00DC23ACF0D0E0FFD0E0FED0E0FDAB822051
:1001BC00E7101BEB60BAEC2CFCEF33FFEE33FEEDDB
:1001CC0033FD020278E803F830E705C0F075F00063
:1001DC00EF2FFFEE33FEED33FD40B830E7C280AABF
:1001EC0075F020800E75F010800575F0087D007E8E
:1001FC00007F003392D530D5031207E1EC33401069
:10020C00EF33FFEE33FEED33FDEC33FCD5F0ED2296
:0E021C00E5F0247EA2D513CC92E7CDCEFF22D2
:10022A00EDD2E7CD33EC3392D524814006E4FFFECC
:10023A00FDFC22FCE4CFCECDCC24E0501174FF802B
:10024A00EDC3CC13CCCD13CDCE13CECF13CF0470C8
:07025A00F030D5DE0207E1E0
:100F2F00E508245FF582E43404F583E00508229098
:100F3F00045C30070390045FE475F00112083D0272
:100F4F00064B2000E97F2ED2008018EF540F24901B
:100F5F00D43440D4FF30040BEF24BFB41A00500335
:100F6F002461FFE50960021509050CE50C70020507
:100F7F000B30070E90045CE475F00112083DEF0290
:100F8F0006910226A27403D2078003E4C207F50874
:100F9F0090045C120854E4F509F50BF50CE50960B3
:100FAF00077F20120F7280F5750AFFC201C200C2BF
:100FBF0002C203C205C206C208120F3EFF700D30F7
:100FCF0007057F00120F83AF0CAE0B22B4255FC253
:100FDF00D5C204120F3EFF24D0B40A00501A75F088
:100FEF000A780930D50508B6FF0106C6A426F620F3
:100FFF00D5047002D20380D924CFB41A00EF500465
:10100F00C2E5D204021275D20180C6D20080C0D2CE
:10101F000280BCD2D580BAD20580B47F20120F7265
:10102F002002077401B5090040F1120F2FFF120FB4
:10103F0072020FACD208D2068095120F2FFB120F3F
:10104F002FFA120F2FF94A4B700679737A137BFF21
:10105F0020022EE509602A7E008E8275830012061B
:10106F006460060EEE650A70F0C2D5EBC0E0EAC010
:10107F00E0E9C0E0EE1212D6D0E0F9D0E0FAD0E00D
:10108F00FB12064BFF60AAEBC0E0EAC0E0E9C0E04C
:10109F00120F72D0E02401F9D0E03400FAD0E0FB57
:1010AF00E50A0460DCD50AD98087D20280A2121229
:1010BF00B860F7E50A7001041202ABA90A600DE5EA
:1010CF000A600914F50A121360EF60F3EA30E702C1
:1010DF00F404C3995079EAF4250A0430E701E404D3
:1010EF00F50A800D1212B860C1EA050A250A12022C
:1010FF00ABEA90048BF030E701E4250A04D50A042B
:10110F00200501141212D6E4C0E012136090048B74
:10111F00E0601320E70714F0120F5A802204F0D07A
:10112F00E014C0E07F00120F5AE50A6007120F515A
:10113F00150A800B300503120F51D0E0020FACD00F
:10114F00E00480C41212B8609EE50A041202AB904C
:10115F00048BEAF0E50A2005026001042404121250
:01116F00D6A9
:1011700074FF04C0E0121360120F5AE50A20050242
:101180006003120F51D0E0B50AE87F45120F64905A
:10119000048BE07F2B30E7047F2DF404C0E0120FB6
:1011A00072D0E075F00A84C0F0120F5BD0E0120F2D
:1011B0005B020FAC791080027908C206C208800871
:1011C000D2D5790A8004790AC2D5E50A047002F5FD
:1011D0000AE4FAFDFEFF120F2FFC7B082001131218
:1011E0000F2FFD7B1030000A120F2FFE120F2FFF62
:1011F0007B20EC3382D592D55013C3E43000069F98
:10120000FFE49EFEE42001039DFDE49CFCE4CBF89A
:10121000C201EC700CCFCECDCCE824F8F870F3808E
:1012200017C3EF33FFEE33FEED33FDEC33FCEB334E
:10123000FB994002FB0FD8E9EB300105F8D0E0C480
:1012400048B201C0E00AEC4D4E4F78207B0070C2DE
:10125000EAB50A0040BCC0E01212D8D0F0D0E020BD
:101260000104C4C0E0C4B201C0F0120F5BD0F0D5DD
:10127000F0EB020FAC12085D10495311B458101A6C
:101280004C10164211B84F11C04411C049102F43E1
:1012900011C65510F34611534510BD471393501016
:1012A0001E2D10222E10452B102623104320137CB8
:1012B0002A0FDE480000103DE50AB4FF03750A0658
:1012C000120F2FFC120F2FFD120F2FFE120F2FFFE8
:1012D0009004840202E8790AA2D52003143005099B
:1012E000B910020404B9080104A2D5200602500175
:1012F000042002689202B509005034C0E07F20301B
:1013000003197F30A20272067205500F12132FC20A
:1013100002C206C205C2087F30800F300503E9C053
:10132000E0120F72300503D0E0F9D0E0B509CC30FF
:1013300005177F30B9100C120F727F583004077FE9
:10134000788003B90803120F723002057F2D020F57
:10135000727F202008F87F2B2006F322920280CF94
:101360007F00B40700500B2484F582E43404F58335
:10137000E0FF22286E756C6C2900D201120F2F300D
:1013800001F8C201780930D50108F6020FDE2D50B0
:10139000434958120F2F2403B405004001E4901371
:1013A0008E93120F63743A120F63D203750904020D
:0213B00011B476
:10026100E9D2E7C933E833F892D5EDD2E7CD33ECE3
:0702710033FC5002B2D5225C
:10027800EC30E7100FBF000C0EBE00080DBD0004E7
:100288000BEB6014A2D5EB13FCED92E7FD2274FF93
:10029800FCFDFEFF22E480F8A2D574FF13FC7D80EC
:0302A800E480EF00
:1002AB00F920E73624F950037907E4F42402FBE53F
:1002BB0082158270021583DBF6E024FB501BE9608C
:1002CB0014E4F0E582158270021583E004F0B40AA1
:0D02DB0008E4F0D9EE7401F00A22C2D52229
:1002E800ED33EC3392D5FA602AB4FF33EDC2E77BE5
:1002F800FF60067A03790DE4227A03791620D50483
:100308007A037911224E614E002B494E46002D4941
:100318004E4600E47A08F0A3DAFC7B00740722C09A
:1003280083C082ECC0E0EDC0E0EEC0E0EFC0E0EAE0
:1003380075F010A4CAABF075F04DA42BFBE435F0B2
:10034800FCEA2410FAEB34C5FBEC34D9FCEDC2E727
:10035800FF75F056A4F42411C5F0F434C58FF0A449
:100368002AE5F03BE43CF020E714120515D0E0FF45
:10037800D0E0FED0E0FDD0E0FC12014F8014F40480
:10038800120515D0E0FFD0E0FED0E0FDD0E0FC1271
:100398000046D082D083E0FAEDD2E7CD33EC3324A7
:1003A80082FBE4C3CF33CFCE33CECD33CD33DBF3B3
:1003B8007B0775F00A846004F0A31B0AE5F0F0A33C
:1003C8008FF0740AA4FFACF08EF0740AA42CFEAC73
:1003D800F050010C8DF0740AA42CFDE435F0F0A364
:0503E800DBDE740722BA
:1003ED00020296E86480F8E933E83360110460F0A6
:1003FD00ED33EC337009E8FCE9FDEAFEEBFF220476
:10040D0060DED3EB9FEA9EE99DE8C2E78CF0C2F770
:10041D0095F0400CE8CCF8E9CDF9EACEFAEBCFFB3C
:10042D0012026185D0F05804700320D5B3E8047032
:10043D00075002B2D50202A092D5EC0460F7E4CCCD
:10044D00C0E0C398F8603B94186008400DD0E0FB05
:10045D00020278E4FBFAC9FC8028E830E406E4C91E
:10046D00FBE4CAFCE830E305E4C9CACBFCE8540759
:10047D006010F8C3E913F9EA13FAEB13FBEC13FC64
:10048D00D8F130F52FC3E49CFCEF9BFFEE9AFEED07
:10049D0099FDD0E0FBEF4E4D4C701222DB030202B2
:1004AD009DEC2CFCEF33FFEE33FEED33FDED30E72D
:1004BD00EB020278EF2BFFEE3AFEED39FDD0E0FBBB
:1004CD0050130BBB00030202A0ED13FDEE13FEEF64
:0804DD0013FFEC13FC0202788E
:1004E5003F8000004120000042C80000447A00001F
:1004F500461C400047C35000497424004B189680A1
:100505004CBEBC205A0E1BCA6753C21C749DC5AE97
:10051500FB60065407601C2323120543EB54386027
:100525000912052F12053E120046ECF8EDF9EEFA18
:10053500EFCB22EB12053E80F1543803241C9004C6
:10054500E5FE93FC0EEE93FD0EEE930ECE93FF2289
:030000000223CA0E
:0C23CA00787FE4F6D8FD75812102241113
:10055500E709F608DFFA8046E709F208DFFA803E88
:1005650088828C83E709F0A3DFFA8032E309F60875
:10057500DFFA8078E309F208DFFA807088828C83DD
:10058500E309F0A3DFFA806489828A83E0A3F60891
:10059500DFFA805889828A83E0A3F208DFFA804C6B
:1005A50080D280FA80C680D4806980F28033801042
:1005B50080A680EA809A80A880DA80E280CA8033AB
:1005C50089828A83ECFAE493A3C8C582C8CCC58323
:1005D500CCF0A3C8C582C8CCC583CCDFE9DEE780F3
:1005E5000D89828A83E493A3F608DFF9ECFAA9F072
:1005F500EDFB2289828A83ECFAE0A3C8C582C8CCC8
:10060500C583CCF0A3C8C582C8CCC583CCDFEADEE0
:10061500E880DB89828A83E493A3F208DFF980CC42
:1006250088F0EF60010E4E60C388F0ED2402B4043B
:100635000050B9F582EB2402B4040050AF232345E2
:0606450082239005A5735D
:10064B00BB010689828A83E0225002E722BBFE02AD
:09065B00E32289828A83E49322E0
:10066400BB010CE58229F582E5833AF583E022504B
:1006740006E92582F8E622BBFE06E92582F8E22295
:0D068400E58229F582E5833AF583E49322AF
:10069100BB010689828A83F0225002F722BBFE0148
:0206A100F32242
:1006A300F8BB010DE58229F582E5833AF583E8F08D
:1006B300225006E92582C8F622BBFE05E92582C839
:0206C300F22221
:1006C500C5F0F8A3E028F0C5F0F8E58215827002C0
:0606D5001583E038F0225D
:1006DB00BB0110E58229F582E5833AF583E0F5F05D
:1006EB00A3E0225009E92582F886F008E622BBFE3A
:1006FB000AE92582F8E2F5F008E222E5832AF58380
:08070B00E993F5F0A3E9932244
:1007130075F008758200EF2FFFEE33FECD33CDCC9D
:1007230033CCC58233C5829BED9AEC99E582984020
:100733000CF582EE9BFEED9AFDEC99FC0FD5F0D6FD
:10074300E4CEFBE4CDFAE4CCF9A88222B800C1B927
:100753000059BA002DEC8BF084CFCECDFCE5F0CB65
:10076300F97818EF2FFFEE33FEED33FDEC33FCEB9E
:1007730033FB10D703994004EB99FB0FD8E5E4F959
:10078300FA227818EF2FFFEE33FEED33FDEC33FC46
:10079300C933C910D7059BE99A4007EC9BFCE99A3A
:1007A300F90FD8E0E4C9FAE4CCFB2275F010EF2F7F
:1007B300FFEE33FEED33FDCC33CCC833C810D7077F
:1007C3009BEC9AE899400AED9BFDEC9AFCE899F8BA
:0E07D3000FD5F0DAE4CDFBE4CCFAE4C8F9224D
:0E07E100C3E49FFFE49EFEE49DFDE49CFC2229
:1007EF00EB9FF5F0EA9E42F0E99D42F0E89C45F060
:0107FF0022D7
:0C080000ECF0A3EDF0A3EEF0A3EFF0226B
:10080C00A8828583F0D083D0821208231208231289
:10081C000823120823E473E493A3C583C5F0C583AE
:10082C00C8C582C8F0A3C583C5F0C583C8C582C836
:01083C002299
:10083D00F8E0FBA3A3E0F925F0F0E5821582700244
:07084D001583E0FA38F022E8
:09085400EBF0A3EAF0A3E9F022A5
:10085D00D083D082F8E4937012740193700DA3A32A
:10086D0093F8740193F5828883E47374029368603E
:06087D00EFA3A3A380DF3E
:1026A200EFB40A07740D1226AD740A309811A89976
:1026B200B8130CC2983098FDA899C298B811F63098
:0726C20099FDC299F5992270
:10088300EF4E6012EF60010EEDBB010B89828A838C
:10089300F0A3DFFCDEFA2289F05007F709DFFCA999
:0C08A300F022BBFEFCF309DFFCA9F022F0
:1023D600022129E493A3F8E493A34003F68001F2D3
:1023E60008DFF48029E493A3F85407240CC8C33308
:1023F600C4540F4420C8834004F456800146F6DFD7
:10240600E4800B01020408102040809019D1E47E7C
:10241600019360BCA3FF543F30E509541FFEE493CB
:10242600A360010ECF54C025E060A840B8E493A392
:10243600FAE493A3F8E493A3C8C582C8CAC583CABD
:10244600F0A3C8C582C8CAC583CADFE9DEE780BE75
:011C7F000064
:00000001FF
