:020000040800F2
:100000007807002001010008F9410008DD2C0008F4
:10001000C1350008C5060008415100080000000075
:10002000000000000000000000000000F150000887
:10003000C906000800000000014B00082D5100080F
:100040001B0100081B0100081B0100081B01000820
:100050001B0100081B010008CD060008D50600089A
:100060001B0100081B0100081B0100081B01000800
:100070001B0100081B0100081B0100081B010008F0
:100080001B0100081B0100081B0100081B010008E0
:100090001B0100081B0100081B010008DD06000809
:1000A0001B010008355100081B0100081B01000856
:1000B0001B0100081B010008000000001B010008D4
:1000C0001B01000800000000000000001B010008E8
:1000D000000000001B0100081B01000800000000D8
:1000E0001B0100081B0100081B010008DFF80CD0F1
:1000F00000F0D0FA00480047B15E00087807002001
:100100000648804706480047FEE7FEE7FEE7FEE7B1
:10011000FEE7FEE7FEE7FEE7FEE7FEE731510008F7
:10012000ED00000840EA01039B0703D009E008C97D
:10013000121F08C0042AFAD203E011F8013B00F8AC
:10014000013B521EF9D27047D2B201E000F8012BF8
:10015000491EFBD270470022F6E710B513460A4647
:1001600004461946FFF7F0FF204610BD421C10F868
:10017000011B0029FBD1801A70472DE9FE4F8046F4
:1001800081EA0300C00F0C46009021F0004123F0EB
:100190000045B8EB0200A94105D2404621469046F1
:1001A0001C460B46024623F00040104347D0270D63
:1001B000C7F30A00C3F30A510290401A0190402885
:1001C0006BDAC3F3130040F4801B0098924620B111
:1001D0000023D2EB030A63EB0B0B01985946C0F1E5
:1001E0004002504600F098F906460D4650465946E2
:1001F000019A00F0B0F910EB08006141002487EA91
:10020000115284EAE7731A4340D0009A62B3019A0C
:10021000012A4FEA075215DC001B61EB02014FF087
:10022000004202EA0752CDE90042001C41F580116C
:1002300032462B4600F0B0F903B0BDE8F08F4046DF
:100240002146F9E7001B61EB0201001C41F5801318
:1002500000185B412018A2F5001747EB030140EAA4
:10026000D570B6196D4111E06D084FEA360645EAC2
:10027000C0754FEA0752001B61EB0201001C41F5FB
:10028000801149084FEA30000019514132462B468F
:1002900003B0BDE8F04F00F070B9009801224000B3
:1002A0000023D0EB020263EBE073009821464FEA93
:1002B000E074B8EB000061EB0401E9E783F0004370
:1002C0005BE781F0004158E72DE9FE4F81EA030426
:1002D00004F0004421F0004100944FF0000B23F0A3
:1002E000004350EA01045ED052EA03045BD0C3F33A
:1002F0000A54C1F30A552C44A4F2F3340194A0FB30
:100300000254C1F3130141F48011C3F3130343F406
:10031000801301FB024400FB034E840A970A44EA5F
:10032000815447EA8357A4FB076802958D0A05FBB1
:1003300007854FEA932C04FB0C542705029D4FEAD6
:10034000065847EA1637B5EB08056EEB070C870E23
:10035000920E47EA811742EA8312A7FB0201B6EB2D
:100360000B0164EB00042B0D43EA0C335E1844EBE5
:100370001C50DA465146E7FB0201C5F313044FEA6D
:100380000B3343EA14534FEA0432019C43EA060359
:10039000A4F10C040294009CCDE900B400F0FCF838
:1003A00003B0BDE8F08F00200146F9E72DE9F04DDC
:1003B00081EA030404F0004B21F0004514464FF09D
:1003C000000A23F0004150EA050220D054EA01025D
:1003D0001DD0C5F30A570246C5F31303C1F313003A
:1003E000C1F30A5640F4801543F48013A7EB0608C6
:1003F000101BD64608F2FD3873EB050002D308F156
:10040000010801E092185B41B8F1000F03DA002007
:100410000146BDE8F08D00204FF480110646844669
:100420000EE0171B73EB050705D3121B63EB0503E7
:1004300006434CEA010C49084FEA300092185B4130
:1004400050EA0107EDD152EA030012D082EA04001B
:1004500083EA0501084305D0101BAB4106D20122F7
:10046000002306E000224FF0004302E06FF001029B
:1004700053101AEB06004CEB085110EB0A0041EB4D
:100480000B01BDE8F04D00F078B830B50B460146E1
:1004900000202022012409E021FA02F59D4205D323
:1004A00003FA02F5491B04FA02F52844151EA2F1CD
:1004B0000102F1DC30BD2DE9F05F054600209246D7
:1004C0009B4688460646814640241BE02846414616
:1004D0004746224600F02FF853465A46C01A91412B
:1004E00010D311461846224600F016F82D1A67EB75
:1004F00001084F4622460120002100F00DF817EBBD
:1005000000094E41201EA4F10104DFDC48463146BB
:100510002A464346BDE8F09F202A04DB203A00FA31
:1005200002F1002070479140C2F1200320FA03F34A
:10053000194390407047202A04DB203A21FA02F048
:100540000021704721FA02F3D040C2F1200291400D
:10055000084319467047202A06DBCB17203A41FA98
:1005600002F043EAE07306E041FA02F3D040C2F140
:100570002002914008431946704710B5141E73F1CC
:10058000000408DA401C41F1000192185B411A4353
:1005900001D120F0010010BD2DE9F04D92469B469F
:1005A00011B1B1FA81F202E0B0FA80F22032904645
:1005B000FFF7B2FF04460F4640EA0A0041EA0B018A
:1005C00053465A46084313D0114653EA010019D046
:1005D000C8F140025046FFF7AEFF05460E465046B2
:1005E00059464246FFF798FF084305D0012004E032
:1005F00020463946BDE8F08D0020054346EAE07606
:100600002C4337430A986305E40AA0EB0800002254
:10061000FD0A44EA47540A3002D500200146E9E7C2
:10062000010510196941DDE9084500196941BDE876
:10063000F04DA2E7C1F30A52C1F3130140F2FF33B8
:1006400041F480119A4202DA00200146704740F2DC
:1006500033439A42A2F2334202DC5242FFF76BBFAD
:10066000FFF75ABF30B5041E71F1000404DB4FF0F0
:100670000044404264EB0101141E73F1000405DBE9
:100680001C464FF00043524263EB0403994208BFFB
:10069000904230BD1CB509480090094801900546BC
:1006A000009C06E0E06840F0010394E807009847EA
:1006B0001034AC42F6D3FFF71DFD0000F8750008BA
:1006C00018760008FEE7000070470000012000F0E7
:1006D000A9B90000022000F0A5B90000202000F018
:1006E000A1B90000EFF3108072B60000B0B5044667
:1006F00000F0A8FA054640F21200C2F200000078AD
:10070000611C18BF044400BF00F09CFA401BA042CB
:10071000FAD3B0BD002908BF70472DE9F04F81B072
:1007200040F2004B41F20002C4F2010BC4F201029C
:10073000032390424FF000026FF01F04ABF57E7967
:1007400008BF0223009318E00346B5F5807F24BF5D
:100750000433A2461F680F2606FA0AF6B74304269A
:1007600006FA0AF637431F60C368AB43C360013221
:1007700031FA02F304F1040447D0012303FA02F52D
:100780000D40F4D022F0030740F6000359F807802B
:10079000C4F2010398420BD040F60043C4F20103B7
:1007A000DDF800E0984208BF4FF0010E02E000BF04
:1007B0004FF0000E04F1200A0AF00C070F2303FA91
:1007C00007FC08EA0C030EFA07F7BB42BCD1DBF8C2
:1007D000003040F20C47AB43CBF80030DBF804307C
:1007E000C4F20107AB43CBF804303B68AB433B603A
:1007F000DBF808309708AB43CBF8083059F82730BE
:1008000023EA0C0349F827309EE701B0BDE8F04F1A
:10081000704700002DE9F04140F24421C2F200018E
:1008200091F83D100446202912D05BA005F020FB72
:100830000A20FFF75BFF40F24425C2F2000528467C
:1008400000F006FA284600F01DFA0A20FFF74EFFD6
:10085000202C00F08780022C43D0012C18BFBDE86B
:10086000F08147F2F24040F60004C0F60000C4F206
:10087000010405F0FDFA204601214FF0010800F0C7
:10088000D5F940F24025C2F200050246287040F238
:100890001800C2F20000027004F580604FF480512D
:1008A00000F0CAF92A7840F22027C2F20007204659
:1008B00008213A7000F0C0F9287840F210060128AB
:1008C000C2F2000609D120462021012286F80080CC
:1008D00000F0B2F98C2004F099FB307829783A784E
:1008E00053E030A005F0C4FA40F22424C2F2000420
:1008F000204604F0DDFF204604F0CCFF38B335A0DD
:1009000005F0B6FA40F21004C2F20004207820216B
:10091000421E40F60000C4F2010018BF01222270FE
:1009200000F08AF920786FF0730148430A30C0B2B2
:1009300004F06CFB40F27031C2F20001002220781A
:100940000A800921092203F0ADFF04F081FB40F287
:100950002420C2F2000005F097F826A0BDE8F0417F
:1009600005F086BA40F22024C2F200042078082163
:10097000421E40F60000C4F2010018BF012222709E
:1009800000F05AF922780920092103F08BFFBDE815
:10099000F04104F05DBB00BF494943425553590A39
:1009A000000000002D2D2D2D2D2D2D2D2D2D2D2D2B
:1009B0002D617870323032204952512052454345E2
:1009C000495645205354412D2D2D2D2D2D2D2D2DA6
:1009D0002D2D0A0050454B2053686F7274205072C1
:1009E0006573732049525120524543454956450A83
:1009F000000000002D2D2D2D2D2D2D2D2D2D2D2DDB
:100A00002D61787032303220495251205245434591
:100A100049564520454E442D2D2D2D2D2D2D2D2D66
:100A20002D2D0A0040F21441C4F201010A6802426D
:100A300014BF08607047FFF7EDBE00002DE9F04FCE
:100A400082B00E68002E00F0EE8041F20002C4F287
:100A50000102032340F2004E904208BF02234FF6EA
:100A6000FF7CC4F2010E009300240123C1F2100C9C
:100A70004FF0000B4FF0000943E0002704F00C0397
:100A80000F229A402AEA020207FA03F34FEA9B0573
:100A90001A4346F825204E6840F20C45F202DEF873
:100AA000082054BF22EA080242EA0802C4F2010503
:100AB000CEF808202A68B30254BF22EA080242EAAC
:100AC00008022A60B303DEF8042054BF22EA0802B9
:100AD00042EA0802F303CEF80420DEF800204FF0CB
:100AE000010354BF22EA080242EA0802CEF80020BD
:100AF0000E680BF1010B36FA0BF204F1040400F05E
:100B0000928003FA0BFA16EA0A08F1D04E6866459D
:100B100010DC122E50D8DFE806F0330A48454F4F5C
:100B20004F4F4F4F4F4F4F4F4F4F4F414C00D1F80A
:100B30000C9041E04FF6FF72C1F2210296420FDCA9
:100B40000022C1F2110296421AD00022C1F2120212
:100B5000964215D00022C1F22102964210D02BE01D
:100B60000022C1F2220296420AD00022C1F23102D2
:100B7000964205D00022C1F2320296421CD100BF3B
:100B80008A6842B1012A14BFC0F814A0C0F810A0AE
:100B90004FF0080910E04FF004090DE0CA6802F1B7
:100BA000040909E04FF0000906E0CA6802F10809EB
:100BB00002E0CA6802F10C0902462646B8F5807FB9
:100BC00024BF0432203E17680F25B54027EA0505EB
:100BD00009FA06F635431560CA79D2067FF588AF63
:100BE00041F21803C4F202031A68AEF57E7642F0B1
:100BF00001021A601A6802F001020192019A2BF0B8
:100C0000030256F802A040F60002C4F2010290422C
:100C10003FF433AF40F60042C4F20102009F90421D
:100C200008BF01272AE702B0BDE8F08F80680840BE
:100C300018BF012070470000002A08BF09040161A5
:100C40007047000040F27430C2F200000068704744
:100C5000002804BF0120704710B5242180F83D1002
:100C6000016804460A6822F001020A6000F0B8FE3A
:100C70000020206484F83D00206384F83E0084F85E
:100C80003C0010BD002804BF01207047F0B581B0C2
:100C9000044690F83D0028B9002084F83C00204626
:100CA00000F0BCFE242084F83D002068016821F09B
:100CB00001010160016841F400410160016821F413
:100CC0000041016001F088F8636848F2A16CC0F24D
:100CD000010C40F60011C0F23D0163453CBF48F2F3
:100CE0008041C0F21E01884202D2012001B0F0BD55
:100CF0004DF68361C4F21B31A0FB01122168970CF1
:100D0000D1F804E04FF496762EF03F0545EA92457F
:100D10004D60774348F638160D6AC0F24106A7FBCE
:100D2000067625F03F07634538BF960C721C3A43A0
:100D30000A62CA6948F2A0664CF6FF77C0F2010663
:100D4000B34222EA070C0AD801385A00B0FBF2F08D
:100D500001306FF31F30042898BF042020E0A26800
:100D60001927002A08BF032701385F43B0FBF7F7B4
:100D700001373F0509D052B119225A43B0FBF2F0B6
:100D80000422013062F31F3008E0012008E003EB89
:100D90004302B0FBF2F001306FF31F3040F400402B
:100DA00040EA0C00C8610868D4E9072320F0C000BD
:100DB000104318430860886848F2FF3204F10C07BA
:100DC00090438CCF18431043A6698860C86820F010
:100DD000FF0038433043C860086840F001000860F5
:100DE00000202021206484F83D10206384F83E0018
:100DF00001B0F0BD2DE9F04F83B01E469246884603
:100E00000446FFF71FFF94F83D10202909D105463D
:100E10002068806910F0020007D194F83C00012896
:100E200028D1022003B0BDE8F08F4FF0010989EA14
:100E3000500706E02068806910F0020089EA500738
:100E4000EBD0FFF7FFFE401B1A28F3D32068806920
:100E50008007EFD500202021206384F83D1084F81E
:100E60003E00216C41F020012164F90784F83C0028
:100E7000D3D1D6E74FF0010B206884F83CB001686D
:100E8000C90703D1016841F0010101600168BAF1AD
:100E9000010F21F4006101604FF0240084F83D004F
:100EA0004FF00000206440F20000CFF6FF70E062D7
:100EB00008F0FE00019098BFDA46CDF800A006F1D8
:100EC000010AA0274FF0000908E000BF009809F1CF
:100ED000010981454FF0A00700F0AF80206801684C
:100EE00041F480710160406910F001002AD180F066
:100EF00001080AE020684069C00711D020684069F5
:100F000010F0010080F001081CD1BAF1000FF5D0FB
:100F1000FFF798FE002EEDD0401BB042EED9E9E776
:100F200000212020216384F83D0084F83E10206CCD
:100F300040F0200020645FEAC87084F83C1040F064
:100F4000AB8000BF206801990161FFF77BFE21683B
:100F500005464A69496994F83D30A02B1FD012F02C
:100F6000020008BF11F4806019D100BFFFF76AFECC
:100F700036B1401BB04288BF84F83D7002E000BF2C
:100F800084F83D7020684169406994F83D20A02AAA
:100F900005D011F0020108BF10F48060E6D02020D7
:100FA00084F83D00206841690268890742F40072B4
:100FB00002602DD46FF4806141612068806910F077
:100FC00002003FF483AF8BEA500707E02068806996
:100FD00010F002008BEA50073FF478AFFFF732FEC3
:100FE000401B1A28F2D3206880698007EED50021C3
:100FF0002020216384F83D0084F83E10206C40F0EE
:1010000020002064F80784F83C107FF45FAF1AE0FA
:101010000021029141690291806902900298206842
:10102000806910F0020012D1202084F83D000020D9
:1010300084F83C0003B0BDE8F08F202084F83D0028
:10104000002084F83C00012003B0BDE8F08F0127A8
:1010500087EA500607E000BF2068806910F00200B0
:1010600087EA5006E0D0FFF7EDFD401B1A28F3D3C6
:10107000206880698007EFD500202021206384F854
:101080003D1084F83E00216C41F020012164F107FD
:1010900084F83C00C8D1D6E720680068C00544BF8A
:1010A0004FF400702064032003B0BDE8F08F00000F
:1010B0002DE9F04782B09946924688460446FFF7EC
:1010C000C1FD94F83D10202909D1054620688069AA
:1010D00010F0020008D194F83C00012828D1022623
:1010E000304602B0BDE8F087012686EA500706E0E8
:1010F0002068806910F0020086EA5007EBD0FFF705
:10110000A1FD401B1A28F3D3206880698007EFD522
:1011100000202021206384F83D1084F83E00216CDB
:1011200041F020012164F90784F83C00D3D1D6E7CF
:101130000121206884F83C100168C90703D10168C7
:1011400041F001010160016821F400610160212189
:1011500084F83D10102184F83E1000212164C4F869
:1011600024A0A4F82A90618D21850021CFF6FF717B
:10117000E162E16A11F5803F18BF012924D10168BD
:1011800041F4807101604069DDF8289010F00100A1
:1011900037D180F0010609F101070AE020684169B2
:1011A000C90717D02068406910F0010080F00106DF
:1011B00027D1002FF6D0FFF745FDB9F1000FEDD094
:1011C000401B4845EED9E9E70829D8D0216B122900
:1011D000D5D0D8E700212022216384F83D2084F86F
:1011E0003E10226C42F020022264F20784F83C1088
:1011F00007D000680126C00544BF4FF4007020648A
:101200006EE72069B0F5804F01D1FE2125E0062070
:1012100000EAD8112068F0310161416909071BD447
:10122000416949053BD409F1010600BF66B1FFF7EA
:1012300009FDB9F1000F02D0401B484504D92068D0
:101240004069000740F1D18020684169090703D453
:1012500041694905EAD522E0FF21206801EA080139
:1012600001614169890730D44169490517D409F101
:10127000010600BF66B1FFF7E5FCB9F1000F02D02F
:10128000401B484504D920684069800740F1AD8083
:1012900020684169890718D441694905EAD5016880
:1012A00041F4007101606FF48061416100202021F0
:1012B000206384F83D1084F83E00216C41F0040165
:1012C000216484F83C0001260AE700260196206884
:1012D00041690191806901900198208D002859D0C1
:1012E00009F1010704E000BF20684069000663D5EA
:1012F000206850F8141F09060DD40168490556D41A
:10130000002FF5D0FFF79EFCB9F1000FECD0401B89
:101310004845EDD9E8E7D4F824E02268704610F893
:10132000013B13616062608D01386085B4F828C0AC
:101330001046ACF10103238550F8141F49070DD561
:1013400019040BD09EF8011011610EF102016162C7
:10135000618D01396185ACF102012185016806E0EA
:1013600020684069400727D5206850F8141F4907B6
:101370000DD4016849051AD4002FF5D0FFF762FC9F
:10138000B9F1000FECD0401B4845EDD9E8E7208DBE
:101390000028ADD12068016841F40071016020206F
:1013A00084F83D0084F83E6084F83C6098E66FF471
:1013B00080610160042000E02020002120222163C0
:1013C00084F83D2084F83E10226C1043206484F899
:1013D0003C10206C042806D120680126016841F4E5
:1013E000007101607CE601267AE60020202120635E
:1013F00084F83D1084F83E00216C41F020015FE745
:101400002DE9F04F85B004460020984692468B4661
:101410000490FFF717FC94F83D10202909D10546E8
:101420002068806910F0020007D194F83C00012880
:1014300028D1022005B0BDE8F08F012686EA5007CA
:1014400007E000BF2068806910F0020086EA5007BC
:10145000EBD0FFF7F7FB401B1A28F3D32068806915
:101460008007EFD500202021206384F83D1084F808
:101470003E00216C41F020012164F90784F83C0012
:10148000D3D1D6E70121226884F83C101368DDE946
:101490000F090E99DB0703D1136843F001031360B2
:1014A000136823F400631360222284F83D20402255
:1014B00084F83E200022226461626085608D594676
:1014C00020850020CFF6FF70E0622046524643465A
:1014D000CDE9009501F004FC18B1012005B0BDE88C
:1014E000F08F208D022826D001280ED0002838D178
:1014F0000020039020684169039181690391039959
:10150000016841F40071016037E02068016821F44E
:1015100080610160EFF3108072B6002003902068B4
:1015200041690391816903910399016841F4007154
:10153000016062B621E02068016841F40061016049
:10154000EFF3108072B60020039020684169039188
:10155000816903910399016821F48061016062B699
:101560000BE02068016841F4806101600021039173
:1015700041690391806903900398218D002900F04F
:10158000218140F20C064FF0010A09F10107C2F275
:1015900000064FF023082068032950F8142F1ED8A6
:1015A000022952D001296CD151060BD5F9E02068EF
:1015B0004069400640F12681206850F8141F490612
:1015C00000F1EF800168C90600F10381FFF73AFBE3
:1015D000B9F1000FEBD0401B4845EDD9E7E75106C4
:1015E00026D52068616A00690870606A228D013022
:1015F000013A606222852168638D013B63854B69F6
:101600005B0740F1DB8092B2032A03D10A6822F41F
:1016100080620A6009690170C7E000BF2068406904
:10162000400640F1EF80206850F8141F4906D8D4D6
:101630000168C90600F1CD80FFF704FBB9F1000F86
:10164000ECD0401B4845EED9E8E712F0040046D143
:101650008AEA900B0AE02068406940072ED520688E
:10166000406910F004008AEA900B38D1002FF6D0C0
:10167000FFF7E8FAB9F1000FEDD0401B4845EED96D
:10168000E9E7B34612F004004FD18AEA90060AE077
:1016900020684069400738D52068406910F0040090
:1016A0008AEA900641D1002FF6D0FFF7CBFAB9F1C4
:1016B000000FEDD0401B4845EED9E9E7002120207E
:1016C000216384F83D0084F83E10206C40F0200037
:1016D00020645FEACB7084F83C107FF4FEAEEFF339
:1016E000108072B62068616A026842F4007202607B
:1016F00000690870606A218D01306062481E208593
:10170000608D0138608562B64BE0002120202163A6
:1017100084F83D0084F83E10206C40F020002064E6
:10172000F00784F83C107FF4D8AE20684BF2895261
:101730000168C1F2F84221F480610160EFF310808A
:1017400072B62068616A00695E460870606A218D21
:101750000130013960622185618D01396185DBF8D5
:101760000010C908A1FB0212110A01FB08F1049143
:101770000499013904910499B9B321684A6952075F
:10178000F6D50A6842F400720A6009690170606A5D
:10179000218D01306062481E2085608D0138608592
:1017A00062B62068616A00690870606A218D013044
:1017B0006062481E2085608D01386085218D00297A
:1017C0007FF4E9AE202084F83D00002084F83E003C
:1017D00024E06FF01001016000202021206384F8D4
:1017E0003D1084F83E00206C16E00020202120638C
:1017F00084F83D1084F83E00206C40F02000206406
:1018000062B60AE000202021206384F83D1084F8AD
:101810003E00206C40F0200020640120002184F86C
:101820003C1005B0BDE8F08F2DE9F04F83B099462C
:1018300092468B460446FFF705FA94F83D1020299E
:1018400009D105462068806910F0020007D194F89C
:101850003C00012828D1022003B0BDE8F08F012709
:1018600087EA500607E000BF2068806910F0020098
:1018700087EA5006EBD0FFF7E5F9401B1A28F3D3AF
:10188000206880698007EFD500202021206384F83C
:101890003D1084F83E00216C41F020012164F107E5
:1018A00084F83C00D3D1D6E70121226884F83C10AB
:1018B0001368DDE90D080C99DB0703D1136843F0C9
:1018C00001031360136823F400631360212284F87A
:1018D0003D20402284F83E2000222264616260851F
:1018E000608D594620850020CFF6FF70E0622046CB
:1018F00052464B46CDE9008501F02AFB00286AD10B
:10190000208DC0B308F1010604E000BF20684069E3
:1019100000064BD5206850F8141F09060DD4016845
:1019200049053ED4002EF5D0FFF78CF9B8F1000F31
:10193000ECD0401B4045EDD9E8E7606A21680346DA
:1019400013F8012B0A61228D6362531E2385678D74
:10195000013F67854F697F070AD51B0408D043788C
:1019600002300B616062901E2085608D01386085B9
:10197000208D0028CED1204641462A4601F0E0FBCA
:1019800008BB2068016841F400710160202084F8E0
:101990003D00002084F83E0084F83C0003B0BDE820
:1019A000F08F6FF480610160042000E020200021AE
:1019B0002022216384F83D2084F83E10226C1043DD
:1019C000206484F83C10206C042804D1206801684D
:1019D00041F400710160012003B0BDE8F08F000008
:1019E00010B540F60044C4F201040068A4F5384183
:1019F000884218BF10BD41F21C00C4F20200016809
:101A000021F40011016020464021FEF783FE2046AC
:101A10008021BDE81040FEF77DBE0000F0B585B026
:101A200040F600450446C4F201050068A5F53841BA
:101A3000002688420496CDE90266019601D005B0E1
:101A4000F0BD41F21807C4F20207386801A940F05E
:101A500008003860386800F0080000900098C02046
:101A600001901220CDE90206032004902846FEF7DB
:101A7000E5FF284640210122FFF7DEF828468021B5
:101A80000122FFF7D9F820684FF400410160066099
:101A9000786840F400107860786800F400100090D6
:101AA000009805B0F0BD000040F2120040F2743121
:101AB000C2F20000C2F2000100780A681044086017
:101AC0007047000080B542F20000C4F202000168D5
:101AD00041F010010160032000F094F8002000F0B4
:101AE00005F800F02BF8002080BD0000B0B540F2F2
:101AF0001202C2F2000240F20C011278C2F200019E
:101B00004FF47A730968B3FBF2F20446B1FBF2F1C9
:101B1000084600F025FB0F2C4FF001050CD858B9F2
:101B20004FF0FF3021460022002500F03FF840F240
:101B30001400C2F2000004602846B0BD80B582B037
:101B400041F21800C4F20200016841F00101016095
:101B5000016801F0010101910199416841F0805152
:101B60004160406800F0805000900098052000F02F
:101B700049F80420C4F201000168022262F31A61EC
:101B8000016002B080BD0000002848BF704700F02F
:101B90001F01012202FA01F11C2202EAD0004EF2DA
:101BA0000012CEF2000281507047000010B54EF6D0
:101BB0000C5CCEF2000CDCF80030C3F3022E8EF089
:101BC0000704042C28BF0424BEF103034FF0FF3E9A
:101BD0000EFA04F438BF0023A14399400EFA03F330
:101BE0009A43114300F1604200F00F03090102F52E
:101BF0006442043B6344002848BF03F10C021170A7
:101C000010BD00004EF60C51CEF200010A684FF6EE
:101C1000FF031A4060F30A2242F0806040F0FD703A
:101C200008607047002804BF012070472DE9F04389
:101C300081B042F20008C4F202080446D8F800005D
:101C40000D4600F0070088420CD2D8F8000020F0C2
:101C500007002843C8F80000D8F8000000F007008B
:101C6000A8426BD1206841F204098107C4F202093D
:101C700017D5410705D5D9F8001041F4E061C9F83E
:101C80000010010705D5D9F8001041F46051C9F8DA
:101C90000010D9F80010A26821F0F0011143C9F832
:101CA0000010C00741D1D8F8000000F00700A8429A
:101CB0000CD9D8F8000020F007002843C8F800002D
:101CC000D8F8000000F00700A84237D1206841078B
:101CD00007D5D9F80010E26821F4E0611143C9F892
:101CE0000010000708D5D9F80000216920F46050E1
:101CF00040EAC100C9F80000D9F8002002F00C0049
:101D0000082841F20020C0F27A0049D147F2E243AC
:101D1000C2F38341C0F60003595CD20334D440F6C9
:101D20000010C0F23D0048433AE0606859F8041CD6
:101D3000022807D0012824D1890305D4012001B04D
:101D4000BDE8F0838901F9D5D9F8001021F003012D
:101D50000843C9F80000FEF775FF064641F28837D0
:101D6000D9F80000616800F00C00B0EB810F9AD048
:101D7000FEF768FF801BB842F2D9032001B0BDE82E
:101D8000F0838907DAD5DFE7D9F8002047F2DC4392
:101D9000C2F34042C0F600039A5C4843B0FBF2F045
:101DA000D9F8001046F63E42C1F30311C0F6000216
:101DB000515C40F20C0220FA01F140F21400C2F230
:101DC00000000068C2F200021160FFF78FFE0020E1
:101DD00001B0BDE8F083000040F20C0041F20401C4
:101DE000C2F20000C4F202010068096846F64E42E1
:101DF000C1F30221C0F60002515CC84070470000E8
:101E000040F20C0041F20401C2F20000C4F20201EF
:101E10000068096846F64E42C1F3C221C0F60002CE
:101E2000515CC84070470000002804BF0120704783
:101E30002DE9F04182B00446007841F20006C00767
:101E4000C4F2020647D0706800F00C00042808D1E4
:101E5000306880033FD56068E8BB012002B0BDE870
:101E6000F081706800F00C00082802D17068C0038F
:101E7000EED4656830682DB1B5F5A02F09D0B5F561
:101E8000803F0AD020F480303060306820F4802019
:101E900005E040F480203060306840F480303060ED
:101EA000FEF7D0FE002D054612D000BF306880033B
:101EB00011D4FEF7C7FE401B6428F7D916E100BF16
:101EC000FEF7C0FE401B64284FF0030000F2D880EC
:101ED00030688003F4D42078800719D5706810F03A
:101EE0000C0F07D0706800F00C00082827D170682C
:101EF000C00324D43068800703D52069012840F04E
:101F0000A6803068616920F0F80040EAC1003060C6
:101F1000207800074ED5A06938B30020C4F24220D3
:101F20000121C0F88014FEF78DFE0546706A800717
:101F30002DD4FEF787FE401B0228F7D9D6E0206992
:101F4000002840F20000C4F2422000F0A8800121E5
:101F50000160FEF777FE054630688007D1D4FEF7B2
:101F600071FE401B0228F7D9C0E00020C4F24220D5
:101F70000021C0F88014FEF765FE0546706A8007F0
:101F800018D5FEF75FFE401B0228F7D9AEE040F2FD
:101F90000C00C2F20000006844F6D351C1F26201A5
:101FA000A0FB0101480A019000BF0198411E0028D2
:101FB0000191F9D12078400717D4E5698DB1706897
:101FC00000F00C00082846D1012D40D07068216A2D
:101FD00000F480328A423AD1616A00F4701088427B
:101FE00035D1002002B0BDE8F081F0695FEAC00899
:101FF00008D4F06940F08050F061F06900F0805042
:102000000090009847F20007C4F200073868C00546
:102010000FD4386840F480703860FEF713FE054630
:102020003868C00505D4FEF70DFE401B6428F7D9BB
:102030005CE0E568306A1DB1052D41D0012D43D02B
:1020400020F001003062306A20F004003EE0012000
:1020500002B0BDE8F0810027C4F2422700203866B4
:10206000FEF7F0FD022D05460ED100BF306880015D
:1020700053D5FEF7E7FD401B02284FF00300F5D9CA
:1020800002B0BDE8F08100BF30688001A9D5FEF73D
:10209000D9FD401B02284FF00300F5D9F0E70021DD
:1020A0000160FEF7CFFD0546306880077FF530AF51
:1020B000FEF7C8FD401B02284FF00300F4D9DFE70C
:1020C00040F004003062306A40F001003062FEF7F8
:1020D000B9FD002D054641F2883712D0306A8007DD
:1020E00012D4FEF7AFFD401BB842F7D9032002B06F
:1020F000BDE8F081FEF7A6FD401BB8424FF003009B
:10210000BED8306A8007F5D4B8F1000F3FF555AF5F
:10211000F06920F08050F0614FE7206AB0F5803F11
:1021200005D17168A26821F40031114371607168B2
:10213000626A21F47411114308437060012038660B
:10214000FEF780FD044600BF306880013FF549AFCF
:10215000FEF778FD001B02284FF00300F4D98FE74B
:10216000411E0020B0EB116F1CBF012070474EF2E2
:102170001002CEF2000251604EF62351CEF2000161
:10218000F0230B70072190601160704770470000CA
:102190007047000090F83C20012A4FF002022BD03B
:1021A00010B5012380F83C3080F83D200268D2F859
:1021B00004E0D2F808C00C682EF070032343B2F19B
:1021C000804F53600BD042F60043C4F201039A42A1
:1021D00005D040F20043C4F200039A4204D149689A
:1021E0002CF08003194391600121002280F83D10FA
:1021F00080F83C20BDE8104010467047002804BF1E
:102200000120704710B590F83D1031B9002180F8D9
:102210003C10044600F05AF82046022180F83D1098
:10222000016842F6004C0B68B1F1804FC4F2010C1A
:1022300018BF61453BD1846823F070032343B1F19B
:10224000804F18BF614539D1046923F4407323439B
:10225000826923F08003D0F804E0C4681A43614522
:102260000A60CC62C1F828E002D14269CCF8302083
:1022700001224A610B69DB0703D00B6923F00103DC
:102280000B6180F8462080F83E2080F83F2080F8DF
:10229000402080F8412080F8422080F8432080F8D8
:1022A000442080F8452080F83D20002010BD40F2F9
:1022B0000044C4F20004A142BDD0C0E740F2004493
:1022C000C4F20004A142BFD0C2E70000006842F699
:1022D0000041C4F20101884218BF704780B582B046
:1022E00041F21800C4F202000168002241F40061CA
:1022F00001600068002100F400600190019819203D
:10230000FFF754FC192002B0BDE88040FFF73CBC49
:1023100090F83D1001291CBF01207047022180F870
:102320003D100068C168B0F1804F41F00101C1600B
:102330000BD042F60041C4F20101884205D040F2C0
:102340000041C4F20001884206D1816801F0070112
:10235000062904BF00207047016841F001010160B7
:10236000002070470146006841F21113C26822F054
:102370000102C260026A1A4208D1026A40F2444372
:102380001A4203D1026822F00102026001220020F9
:1023900081F83D207047000090F83C20012A4FF062
:1023A00002026ED080B5012380F83C3080F83D20D9
:1023B000D0F800C04FF67772DCF8083023EA02024A
:1023C000CCF808200B684F2B28DC1F2B44DD202B7A
:1023D00045D0302B43D0402B40F0AC80D1F804E006
:1023E000C968DCF82030DCF8202022F00102CCF8AB
:1023F0002020DCF8182022F0F00242EA011123F03C
:102400000A0242EA0E02CCF81810CCF82020DCF8C0
:10241000081041F0470121F0300127E06F2B32DD39
:10242000B3F5005F73D0B3F5805F21D0702B40F01F
:102430008180D1E901E3C968DCF8082043EA0E0392
:1024400022F47F4243EA01211143CCF80810DCF862
:10245000081041F0770109E00BB1102B6AD1DCF8CC
:10246000081021F07001194341F00701CCF8081061
:102470000022012180F83D10002180F83C10BDE8C9
:10248000804010467047502B21D0602B52D1D1F89C
:1024900004E0C968DCF82030DCF8202022F01002CB
:1024A000CCF82020DCF8182022F4704242EA0131F6
:1024B00023F0A00242EA0E12CCF81810CCF820202B
:1024C000DCF8081041F0670121F01001CEE7D1F8E7
:1024D00004E0C968DCF82030DCF8202022F001029A
:1024E000CCF82020DCF8182022F0F00242EA01119A
:1024F00023F00A0242EA0E02CCF81810CCF8202091
:10250000DCF8081041F0570121F02001AEE7D1E9D5
:1025100001E3C968DCF8082043EA0E0322F47F4295
:1025200043EA01211143CCF80810DCF8081041F40B
:1025300080419BE701229CE77047000070B504468C
:102540000068C5680669B10716D515F0020113D0F9
:102550006FF002010161012121778069800703D0BA
:102560002046FFF7E9FF05E0204600F08DF8204601
:1025700000F00CFA00202077700718D515F0040041
:1025800015D020686FF00401016102212177806974
:1025900010F4407F03D02046FFF7CEFF05E0204631
:1025A00000F072F8204600F0F1F9002020773007A3
:1025B00017D515F0080014D020686FF008010161EC
:1025C00004212177C069800703D02046FFF7B4FFBC
:1025D00005E0204600F058F8204600F0D7F900202A
:1025E0002077F00618D515F0100015D020686FF090
:1025F0001001016108212177C06910F4407F03D0E8
:102600002046FFF799FF05E0204600F03DF8204600
:1026100000F0BCF900202077F00718BF15F001008A
:1026200002D1300609D412E020686FF00101016187
:10263000204600F005FA300609D515F0800006D0D6
:1026400020686FF0800101612046FFF79FFD700652
:1026500009D515F0400006D020686FF040010161F7
:10266000204600F00FFAB00658BF70BD15F02000EC
:1026700008D021686FF0200220460A61BDE8704052
:10268000FFF786BD70BD00007047000090F83C3039
:10269000012B04BF022070474FEAB2020123032A34
:1026A00080F83C3000F2EC802DE9F041DFE802F0E8
:1026B00002A63B76036842F600451C6A1A6AC4F219
:1026C000010522F001021A621A46D3F804C052F83A
:1026D00018EF8E6824F00204AB4244EA060405D1E8
:1026E000CE6824F00C0426F0040634430E68AB4296
:1026F00006D1D1E905582CF440772F4347EA080C5E
:102700002EF073073743C3F804C09F614F6809690F
:102710005F631C629F6947F008079F619F6927F00C
:1027200004079F61A6E0036842F600451C6A1A6A26
:10273000C4F2010522F480721A621A46D3F804C06A
:1027400052F81CEF8E6824F40074AB4244EA06246D
:1027500007D1CE6840F2FF47360224F44064BE43FE
:1027600034430E68AB4206D1D1E905572CF4405CE6
:102770003D434CEA051C2EF073073743C3F804C0F1
:10278000DF614F680969DF631C62DF6947F0080792
:10279000DF61DF6927F00407DF616BE0036842F661
:1027A0000047D3F820C01A6AC4F2010722F480520D
:1027B0001A621A465C6852F81C5FD1F800E08E6815
:1027C000BB4204D14F6924F4804444EA87142CF4BA
:1027D000005747EA063725F4E64646EA0E265C60CF
:1027E000DE614E6809691E641F62DF6947F4006795
:1027F000DF61DF6927F48067DF613AE0036842F652
:1028000000451C6A1A6AC4F2010522F010021A621D
:102810001A46D3F804C052F818EF8E6824F020044A
:10282000AB4244EA061407D1CE686FF0400724F0AB
:10283000C00407EA061634430E68AB4206D1D1E95C
:1028400005572CF4406C3D434CEA850C2EF4E647CA
:1028500047EA0627C3F804C09F614F6809699F6370
:102860001C629F6947F400679F619F6927F4806736
:102870009F6109021368194300231160BDE8F0410C
:10288000002180F83C10184670470000002804BF63
:102890000120704710B590F83D1031B9002180F843
:1028A0003C10044600F05AF82046022180F83D1002
:1028B000016842F6004C0B68B1F1804FC4F2010C84
:1028C00018BF61453BD1846823F070032343B1F105
:1028D000804F18BF614539D1046923F44073234305
:1028E000826923F08003D0F804E0C4681A4361458C
:1028F0000A60CC62C1F828E002D14269CCF83020ED
:1029000001224A610B69DB0703D00B6923F0010345
:102910000B6180F8462080F83E2080F83F2080F848
:10292000402080F8412080F8422080F8432080F841
:10293000442080F8452080F83D20002010BD40F262
:102940000044C4F20004A142BDD0C0E740F20044FC
:10295000C4F20004A142BFD0C2E70000006840F208
:102960000041C4F20001884218BF704781B041F2B3
:102970001C00C4F20200016841F00201016000681D
:1029800000F002000090009801B07047704700000E
:102990004122082908BF4022042908BF3F220029FC
:1029A00008BF3E22825C012A1CBF01207047022220
:1029B00041B1082909D0042914BF80F8412080F8CA
:1029C0003F2004E080F83E2001E080F840200068CD
:1029D00001F01F010122036A8A4023EA0201016219
:1029E000036A42F64441C4F201011A43A1F14403CF
:1029F0009842026203D0B0F1804F07D112E00A681A
:102A000042F400420A60B0F1804F0BD042F6004120
:102A1000C4F20101884205D040F20041C4F2000135
:102A2000884206D1816801F00701062904BF002011
:102A30007047016841F0010101600020704700000B
:102A4000014640F60040C4F20100096800F500525A
:102A5000914218BF704780B540F21101C2F20001E7
:102A60000A78013A18BF01220A701021FEF7E4F833
:102A700040F27030C2F20000018801310180BDE8EF
:102A80008040704770470000002804BF0120704755
:102A900010B5044690F8410028B9002084F84000A1
:102AA000204600F061F8242084F841002068D4E931
:102AB0000212C36823F40053C360036923F4405334
:102AC0001A430261D4E904231143C268194341F255
:102AD0000C639A431143C1604169A26921F44071BA
:102AE000114343F60002C4F201029042416102D058
:102AF000FFF772F901E0FFF783F9D4E90023192108
:102B000048439900B0FBF1F048F21F5CC5F2EB1CA2
:102B1000A0FB0C314FF69C734909C0F6FF7301FB13
:102B20000300322303EB0010A0FB0C03F02000EAAB
:102B3000531000EB0110C3F3431108449060106977
:102B4000202120F490401061506920F02A0050614B
:102B5000D06840F40050D0600020606484F84110D8
:102B600084F84210606310BD70B586B040F6000472
:102B7000C4F20104006804F540510026884205961D
:102B8000CDE90366029601D006B070BD41F218008F
:102B9000C4F20200016802AD41F4804101600168A5
:102BA00001F4804101910199016841F00401016043
:102BB0000068294600F00400019001984FF400706D
:102BC000029002200390032005902046FDF736FF77
:102BD0004FF48060CDE90206204629460496FDF7B1
:102BE0002DFF06B070BD00002DE9F04381B0044612
:102BF00090F84100202809D1884600294FF00100B3
:102C000018BF002A06D101B0BDE8F083022001B050
:102C1000BDE8F0830020606421201D4684F8410057
:102C20001646FEF70FF8A684E684A1680646B1F5BD
:102C3000805F02D1206900284DD0C1464FF00008C6
:102C4000E08C40B36F1C0BE0B9F1000F1AD019F8FB
:102C5000010B21684860E08C0138E084E08CD0B141
:102C6000206800680006EFD4002FF9D0FDF7EAFFD6
:102C700001464FF0030045B3891BA94225D82068BF
:102C8000C068EDE738F8020B21686FF35F204860F9
:102C90004FF00009DFE720680068400614D46F1C7D
:102CA00004E000BF2068006840060DD4002FF9D072
:102CB000FDF7C8FF01464FF0030035B1891BA9425B
:102CC00003D82068C068EDE70020202184F8411077
:102CD00001B0BDE8F0834FF00009B1E7FEE7000066
:102CE0002DE9F04F83B004460068DDF834B00C9E47
:102CF0000768994647F4806707600768904647F47D
:102D00008073036040698A4610F001002AD180F088
:102D10000107751C0BE000BF20684069C00711D097
:102D20002068406910F0010080F001071AD1002DE1
:102D3000F6D0FDF787FF002EEED0A0EB0B00B042DF
:102D4000EED9E9E700202021206384F83D1084F8C3
:102D50003E00216C41F020012164F90784F83C0019
:102D600040F0B78020680AF0FE0AC0F810A0416960
:102D700089072CD44169490514D4771C5FB1FDF74C
:102D800061FF1EB1A0EB0B00B04204D9206840697E
:102D9000800740F1D18020684169890717D44169D3
:102DA0004905EBD5016841F4007101606FF4806161
:102DB000416100202021206384F83D1084F83E000A
:102DC000216C41F00401216484F83C00B0E0002053
:102DD0000290206850F8141F0291416802910299F4
:102DE000016809061AD4771C0AE000BF2068406910
:102DF000000640F18880206850F8141F09060DD4A1
:102E00000168490551D4002FF5D0FDF71BFF002EB6
:102E1000ECD0A0EB0B00B042EDD9E7E72068B9F1A8
:102E2000010F21D04FEA1821016150F8141F090643
:102E300019D4771C09E000BF20684069000662D5FC
:102E4000206850F8141F09060DD4016849052CD4D8
:102E5000002FF5D0FDF7F6FE002EEDD0A0EB0B0015
:102E6000B042EDD9E8E720685FFA88F10161206897
:102E700050F8141F09061DD4771C08E0206840692B
:102E8000000640D5206850F8141F090612D40168C6
:102E900049050AD4002FF5D0FDF7D4FE002EEDD061
:102EA000A0EB0B00B042EDD9E8E76FF48061016060
:102EB000042029E0206800220168334641F4807133
:102EC000016020464FF00111CDF800B000F072F91A
:102ED00050B120680068C00544BF4FF40070206402
:102EE000032003B0BDE8F08F25684AF001070221F6
:102EF000C0F20101204632465B462F6103B0BDE8B7
:102F0000F04F00F09BB9202000212022216384F89B
:102F10003D2084F83E10226C1043206484F83C105D
:102F2000206C042804D12068016841F4007101601C
:102F3000012003B0BDE8F08F00202021206384F839
:102F40003D1084F83E00216C41F020013BE7000079
:102F50002DE9F04F81B00446006890460268DDF824
:102F60002CA042F48072026040690A9E994610F0DB
:102F700001008B4634D180F00105771C0BE000BFC7
:102F800020684069C00711D02068406910F0010036
:102F900080F0010524D1002FF6D0FDF753FE002E5E
:102FA000EED0A0EB0A00B042EED9E9E700202021E4
:102FB000206384F83D1084F83E00216C41F020012C
:102FC0002164E90784F83C000AD020680068C00545
:102FD00044BF4FF400702064032001B0BDE8F08FBF
:102FE00020680BF0FE010161416989072DD4416918
:102FF000490515D4751C00BF5DB1FDF723FE1EB158
:10300000A0EB0A00B04204D920684069800740F173
:103010008C8020684169890717D441694905EBD53F
:10302000016841F4007101606FF48061416100202A
:103030002021206384F83D1084F83E00216C41F08B
:103040000401216484F83C006BE0002000902068BB
:1030500050F8141F00914168009100990168090619
:1030600019D4751C09E000BF20684069000643D5EB
:10307000206850F8141F09060DD4016849052ED4A4
:10308000002DF5D0FDF7DEFD002EEDD0A0EB0A00FF
:10309000B042EDD9E8E72068B9F1010F25D04FEA39
:1030A0001821016150F8141F09061DD4751C08E091
:1030B0002068406900061FD5206850F8141F0906D3
:1030C00012D4016849050AD4002DF5D0FDF7BAFDE8
:1030D000002EEDD0A0EB0A00B042EDD9E8E76FF486
:1030E00080610160042008E020685FFA88F10161D6
:1030F000002001B0BDE8F08F2020002120222163B4
:1031000084F83D2084F83E10226C1043206484F83B
:103110003C10206C042804D12068016841F400713F
:103120000160012001B0BDE8F08F00202021206364
:1031300084F83D1084F83E00216C41F0200180E7C6
:10314000F0B581B004460068154650F8143F5A07A0
:1031500018D40E464F1C08E020684069400719D576
:10316000206850F8141F49070CD4016849050CD495
:10317000002FF5D0FDF766FD002EEDD0401BB042CC
:10318000EED9E9E7002001B0F0BD6FF48061016085
:10319000042000E0202000212022216384F83D202B
:1031A00084F83E10226C1043206484F83C10012007
:1031B00001B0F0BD2DE9F047DDF8208099461646B4
:1031C000044601F47F0018278DB203F1010AB0F51F
:1031D000803F08BF142708E02068C0592840401BE2
:1031E000B0FA80F04009B04218D02068C059284099
:1031F000401BB0FA80F04009B0420CD1BAF1000F88
:10320000F3D0FDF71FFDB9F1000FE5D0A0EB0800EA
:103210004845EAD9E0E70020BDE8F08700202021FA
:10322000206384F83D1084F83E00216C41F02001B9
:10323000216484F83C000120BDE8F0872DE9F041CD
:1032400004460068984643698FB203EA0701B94211
:1032500002D10020BDE8F0814169490517D4164626
:10326000551C00BF5DB1FDF7EDFC1EB1A0EB0800E1
:10327000B04204D9206840693840B8421ED1206865
:1032800041693940B942E4D041694905EAD501684C
:1032900041F4007101606FF48061416104200021FC
:1032A0002022216384F83D2084F83E10226C1043D4
:1032B0002064012084F83C10BDE8F0812020EEE776
:1032C0002DE9F04F85B0002741F21800CDE90377D2
:1032D000CDE90177C4F20200016840F6000641F032
:1032E000040101600168C4F2010601F004010091CB
:1032F00000990168002241F008010160016801F0B5
:10330000080100910099016841F010010160006816
:103310003C2100F01000009000983046FDF78CFC36
:1033200006F58064204643F21001002243F2100BA0
:10333000FDF782FC40F20009C1F2210909F5801075
:1033400001AD4FF00108CDE9020730462946CDF81E
:103350000480FDF773FB4FF0020A30462946CDE9A1
:1033600001A9CDF80C80FDF769FB402001A981E897
:10337000810430462946FDF761FB3C20CDE9010878
:1033800030462946CDE9037AFDF758FB2046294609
:10339000CDE901B8CDE9037AFDF750FB4FF4407059
:1033A00001A981E8810520462946FDF747FB202039
:1033B000CDE9010920462946CDF80C80FDF73EFBFA
:1033C000072001210022FEF7F1FB0720FEF7DCFBBE
:1033D000062002210022FEF7E9FB0620FEF7D4FBBF
:1033E000172003210022FEF7E1FB1720FEF7CCFB9C
:1033F00005B0BDE8F08F000080B540F2442045F2F2
:103400000041C2F20000C4F2000141F68022002314
:103410004FF4804CC0F2060280E80E00C0E9033C85
:10342000C0E90533C0E90733FDF72CFC002808BFCD
:1034300080BDBDE88040FDF755B9000080B586B07D
:1034400040F2982C0023C2F2000C42F60042C4F273
:103450000102CCE902306046CDE90433CDE9023304
:10346000CDE90033CCE90021CCE90433CCF81830A5
:10347000FEF7C4FE002818BFFDF734F94FF4805062
:10348000029040F29820C2F2000002A9FEF784FFE9
:10349000002818BFFDF726F90020CDE9000040F212
:1034A0009820C2F200006946FEF774FE002818BF9B
:1034B000FDF718F906B080BD70B590B040F2004538
:1034C00040F2E020C4F200050024C2F200004FF4F4
:1034D0007A710994CDE90744CDE90544CDE9034467
:1034E000CDE90144C0E90054C0E9024104618461AE
:1034F000FFF7CCF9002818BFFDF7F4F840F2E02000
:10350000C2F2000008A9CDE90844FEF743FE0028F6
:1035100018BFFDF7E7F8602040F2E0240190C720D3
:10352000C2F200040290002601A92046042203965C
:103530000596FFF7ABF8002818BFFDF7D3F8206811
:10354000CDE90E66A8420D960C9601D010B070BD64
:1035500041F21800C4F20200016841F00401016068
:1035600000680CA900F004000B900B9880200C90D0
:1035700002200D900F9005F58230FDF75FFA10B034
:1035800070BD000080B540F2283043F60001C2F261
:103590000000C4F2010100234FF00C0C4FF4E132A3
:1035A00080E80E00C0E90333C0E905C3C361FFF73B
:1035B0006BFA002808BF80BDBDE88040FDF792B8D7
:1035C000FEE700002DE9F04F85B040F244241020C2
:1035D000C2F200048DF813004FF0640B01260DF1C8
:1035E00013072046E021A3220123CDE90076CDF880
:1035F00008B0FEF719F93A208DF813002046EA21A9
:103600005D220123CDE90076CDF808B0FEF70CF974
:103610000D208DF813002046EA215E220123CDE91A
:103620000076CDF808B0FEF7FFF811208DF81300F2
:103630002046E021A3220123CDE90076CDF808B091
:10364000FEF7F2F84FF000082046EA21EB220123B2
:103650008DF81380CDE90076CDF808B0FEF7E4F8D8
:103660002046EA21ED2201238DF81380CDE9007672
:10367000CDF808B0FEF7D8F82046E0210F2201234C
:103680008DF81360CDE90076CDF808B0FEF7CCF8E0
:1036900005208DF813002046E02100220123CDE90A
:1036A0000076CDF808B0FEF7BFF82046E0210122F1
:1036B00001238DF81380CDE90076CDF808B0FEF730
:1036C000B3F840208DF813002046E02102220123A8
:1036D000CDE90076CDF808B0FEF7A6F8C4208DF845
:1036E00013002046E02107220123CDE90076CDF822
:1036F00008B0FEF799F82046E021092201238DF851
:103700001360CDE90076CDF808B0FEF78DF82046BD
:10371000E0210B2201238DF81380CDE90076CDF84E
:1037200008B0FEF781F808252046E0211022012389
:103730008DF81350CDE90076CDF808B0FEF774F897
:10374000A0208DF813002046E02111220123CDE9AD
:103750000076CDF808B0FEF767F82046E021122287
:1037600001238DF81380CDE90076CDF808B0FEF77F
:103770005BF84FF00A0A2046E021132201238DF85E
:1037800013A0CDE90076CDF808B0FEF74DF820463D
:10379000E021142201238DF81350CDE90076CDF8F5
:1037A00008B0FEF741F82046E021152201238DF8EC
:1037B0001380CDE90076CDF808B0FEF735F84FF06C
:1037C00006092046E021162201238DF81390CDE949
:1037D0000076CDF808B0FEF727F80D208DF813001D
:1037E0002046E02117220123CDE90076CDF808B06C
:1037F000FEF71AF82046E021182201238DF81380E5
:10380000CDE90076CDF808B0FEF70EF82046E021AD
:10381000192201238DF813A0CDE90076CDF808B068
:10382000FEF702F82046E0211A2201238DF81390BA
:10383000CDE90076CDF808B0FDF7F6FF2046E0218F
:103840001B2201238DF81380CDE90076CDF808B056
:10385000FDF7EAFF2046E0211C2201238DF81380AA
:10386000CDE90076CDF808B0FDF7DEFF05208DF834
:1038700013002046E0211D220123CDE90076CDF87A
:1038800008B0FDF7D1FF2046E0211E2201238DF86C
:103890001380CDE90076CDF808B0FDF7C5FF2046CE
:1038A000E0211F2201238DF81360CDE90076CDF8C9
:1038B00008B0FDF7B9FF2046E021202201238DF852
:1038C0001350CDE90076CDF808B0FDF7ADFFA0208C
:1038D0008DF813002046E02121220123CDE9007656
:1038E000CDF808B0FDF7A0FF2046E02122220123F9
:1038F0008DF81380CDE90076CDF808B0FDF794FF80
:103900002046E021232201238DF813A0CDE9007683
:10391000CDF808B0FDF788FF2046E02124220123DE
:103920008DF81350CDE90076CDF808B0FDF77CFF97
:103930002046E021252201238DF81380CDE9007671
:10394000CDF808B0FDF770FF2046E02126220123C4
:103950008DF81390CDE90076CDF808B0FDF764FF3F
:103960000D208DF813002046E02127220123CDE908
:103970000076CDF808B0FDF757FF2046E021282259
:1039800001238DF81380CDE90076CDF808B0FDF75E
:103990004BFF2046E021292201238DF813A0CDE919
:1039A0000076CDF808B0FDF73FFF2046E0212A223F
:1039B00001238DF81390CDE90076CDF808B0FDF71E
:1039C00033FF2046E0212B2201238DF81380CDE91F
:1039D0000076CDF808B0FDF727FF2046E0212C2225
:1039E00001238DF81380CDE90076CDF808B0FDF7FE
:1039F0001BFF05208DF813002046E0212D22012316
:103A0000CDE90076CDF808B0FDF70EFF2046E021A5
:103A10002E2201238DF81380CDE90076CDF808B071
:103A2000FDF702FF2046E0212F2201238DF81360CD
:103A3000CDE90076CDF808B0FDF7F6FE2046E0218E
:103A4000552201238DF81350CDE90076CDF808B04A
:103A5000FDF7EAFE2046E021562201238DF813806F
:103A6000CDE90076CDF808B0FDF7DEFE2046E02176
:103A7000572201238DF81380CDE90076CDF808B0E8
:103A8000FDF7D2FE2046E021582201238DF8135085
:103A9000CDE90076CDF808B0FDF7C6FE2046E0215E
:103AA000592201238DF81380CDE90076CDF808B0B6
:103AB000FDF7BAFE2046E0215A2201238DF813803B
:103AC000CDE90076CDF808B0FDF7AEFE34208DF8D4
:103AD00013002046E0215D220123CDE90076CDF8D8
:103AE00008B0FDF7A1FE32208DF813002046E0213A
:103AF0005E220123CDE90076CDF808B0FDF794FEF3
:103B000020252046E0215F2201238DF81350CDE9C6
:103B10000076CDF808B0FDF787FE2046E021602250
:103B200001238DF81380CDE90076CDF808B0FDF7BC
:103B30007BFE2046E021702201238DF81380CDE921
:103B40000076CDF808B0FDF76FFE2046E021712227
:103B500001238DF81360CDE90076CDF808B0FDF7AC
:103B600063FE2046E021732201238DF81380CDE906
:103B70000076CDF808B0FDF757FE2046E02174220C
:103B800001238DF81350CDE90076CDF808B0FDF78C
:103B90004BFEB0208DF813002046EA2100220123BD
:103BA000CDE90076CDF808B0FDF73EFE2046EA21CB
:103BB000012201238DF81380CDE90076CDF808B0FD
:103BC000FDF732FE5C208DF813002046EA21022228
:103BD0000123CDE90076CDF808B0FDF725FE47209A
:103BE0008DF813002046EA210B220123CDE900764F
:103BF000CDF808B0FDF718FE05252046EA210E2273
:103C000001238DF81350CDE90076CDF808B0FDF70B
:103C10000BFE2046EA210F2201238DF813504FF0AE
:103C2000050ACDE90076CDF808B0FDF7FDFD772057
:103C30008DF813002046EA2111220123CDE90076F8
:103C4000CDF808B0FDF7F0FD03208DF813002046F5
:103C5000EA212C220123CDE90076CDF808B0FDF74A
:103C6000E3FDA0252046EA212D2201238DF81350E3
:103C7000CDE90076CDF808B0FDF7D6FD23208DF80C
:103C800013002046EA2184220123CDE90076CDF8F5
:103C900008B0FDF7C9FD2046EA21852201238DF8F1
:103CA0001360CDE90076CDF808B0FDF7BDFDB12079
:103CB0008DF813002046EA2100220123CDE9007689
:103CC000CDF808B0FDF7B0FD2046E0210F2201231A
:103CD0008DF81380CDE90076CDF808B0FDF7A4FD8E
:103CE00036208DF813002046E021A0220123CDE9E3
:103CF0000076CDF808B0FDF797FD29208DF8130068
:103D00002046E021A1220123CDE90076CDF808B0BC
:103D1000FDF78AFD37208DF813002046E021A02210
:103D20000123CDE90076CDF808B0FDF77DFD5020E8
:103D30008DF813002046E021A1220123CDE9007671
:103D4000CDF808B0FDF770FD38208DF8130020463F
:103D5000E021A0220123CDE90076CDF808B0FDF7DF
:103D600063FD2046E021A12201238DF81380CDE9D7
:103D70000076CDF808B0FDF757FD39208DF8130017
:103D80002046E021A0220123CDE90076CDF808B03D
:103D9000FDF74AFD2046E021A12201238DF81350B2
:103DA000CDE90076CDF808B0FDF73EFD3A208DF85C
:103DB00013002046E021A0220123CDE90076CDF8B2
:103DC00008B0FDF731FD4FF080092046E021A12227
:103DD00001238DF81390CDE90076CDF808B0FDF7FA
:103DE00023FD3B208DF813002046E021A022012373
:103DF000CDE90076CDF808B0FDF716FD2046E021AC
:103E0000A12201238DF81380CDE90076CDF808B00A
:103E1000FDF70AFD3C208DF813002046E021A0228A
:103E20000123CDE90076CDF808B0FDF7FDFC0D20AB
:103E30008DF813002046E021A1220123CDE9007670
:103E4000CDF808B0FDF7F0FC3D208DF813002046BA
:103E5000E021A0220123CDE90076CDF808B0FDF7DE
:103E6000E3FC60208DF813002046E021A12201230D
:103E7000CDE90076CDF808B0FDF7D6FC3E208DF8F0
:103E800013002046E021A0220123CDE90076CDF8E1
:103E900008B0FDF7C9FC96208DF813002046E021FC
:103EA000A1220123CDE90076CDF808B0FDF7BCFCD6
:103EB0003F208DF813002046E021A0220123CDE908
:103EC0000076CDF808B0FDF7AFFC2046E021A12236
:103ED00001238DF813A0CDE90076CDF808B0FDF7E9
:103EE000A3FC40252046E021A02201238DF8135099
:103EF000CDE90076CDF808B0FDF796FC31208DF8BD
:103F000013002046E021A1220123CDE90076CDF85F
:103F100008B0FDF789FC41208DF813002046E02110
:103F2000A0220123CDE90076CDF808B0FDF77CFC96
:103F30002046E021A12201238DF81380CDE90076EF
:103F4000CDF808B0FDF770FC42208DF81300204634
:103F5000E021A0220123CDE90076CDF808B0FDF7DD
:103F600063FCC5208DF813002046E021A122012327
:103F7000CDE90076CDF808B0FDF756FC43208DF86A
:103F800013002046E021A0220123CDE90076CDF8E0
:103F900008B0FDF749FC94208DF813002046E0217D
:103FA000A1220123CDE90076CDF808B0FDF73CFC55
:103FB00044208DF813002046E021A0220123CDE902
:103FC0000076CDF808B0FDF72FFC2046E021A122B5
:103FD00001238DF81380CDE90076CDF808B0FDF708
:103FE00023FC45208DF813002046E021A022012368
:103FF000CDE90076CDF808B0FDF716FC2046E021AB
:10400000A12201238DF81380CDE90076CDF808B008
:10401000FDF70AFC46208DF813002046E021A0227F
:104020000123CDE90076CDF808B0FDF7FDFB204671
:10403000E021A12201238DF81380CDE90076CDF88F
:1040400008B0FDF7F1FB47208DF813002046E02172
:10405000A0220123CDE90076CDF808B0FDF7E4FBFE
:104060001E208DF813002046E021A1220123CDE976
:104070000076CDF808B0FDF7D7FB7F208DF8130050
:104080002046E021A0220123CDE90076CDF808B03A
:10409000FDF7CAFBEA208DF813002046E021A1229B
:1040A0000123CDE90076CDF808B0FDF7BDFB072070
:1040B0008DF813002046EA212B220123CDE900765A
:1040C000CDF808B0FDF7B0FB4FF0FF0A2046EA211B
:1040D0002E2201238DF813A0CDE90076CDF808B08B
:1040E000FDF7A2FBF7208DF813002046EA212F22CE
:1040F0000123CDE90076CDF808B0FDF795FB204609
:10410000EA21302201238DF813A0CDE90076CDF805
:1041100008B0FDF789FB2046EA21312201238DF802
:1041200013A0CDE90076CDF808B0FDF77DFB204661
:10413000EA21352201238DF81390CDE90076CDF8E0
:1041400008B0FDF771FB2046EA21342201238DF8E7
:104150001380CDE90076CDF808B0FDF765FB204669
:10416000EA21342201238DF81350CDE90076CDF8F1
:1041700008B0FDF759FB03208DF813002046EA2113
:1041800036220123CDE90076CDF808B0FDF74CFBCF
:1041900005B0BDE8F08F000010B586B040F6000411
:1041A000C4F20104204604210022FCF745FD05204D
:1041B000FCF79CFA204604210122FCF73DFD052076
:1041C000FCF794FAFFF7FEF90A200DF10E01CDE994
:1041D000001040F244206424C2F20000EA210222CE
:1041E00001230294FDF70CF99DF80E005C38B0FA3B
:1041F00080F0400906B010BDFEE700002DE9F04F49
:1042000087B00691591A01EB5173012707EBE307B9
:104210004B0708BFCF08F9B20029039104906BD077
:1042200040F21E00C2F200000078109CB0FA80F04C
:1042300045092046002C18BF012080EA0506049895
:104240000021101A0190100100230090029209E051
:1042500005990398013181420698029A00F10800FD
:10426000069049D0049805918242F1D90198DDF871
:10427000009018445FFA80F807E000BF0133D8B21D
:10428000013A8045A9F11009E2D040F2200109F479
:104290007860C2F2000101EB000C1198012110F8C6
:1042A00003E002F0070001FA00FA06996FEA0A003B
:1042B0004FF0080B0BE000BF1F2A98BF7F2912D9CF
:1042C0004FEA5E0EBBF1010B01F10101D6D05FEAAE
:1042D000CE77F1D11F2A98BF7F29F1D82EB91CF8CB
:1042E0000170074005E0A542F9D11CF8017047EACA
:1042F0000A070CF80170E3E707B0BDE8F08F000093
:104300002DE9F04F89B017461A7807900B2A00F074
:104310009180072A40F096805878079A10447F28A9
:1043200000F38F80182900F38C805878002800F063
:10433000898089B2039140F21E01C2F2000109781E
:10434000A7F12002B1FA81F14D091299009702926A
:10435000002918BF012169400891596840F2200ED8
:10436000019119780024CDE9053159784FF0010801
:10437000C2F2000E049104E004980134844280F0FB
:10438000E38006990029F7D00299069B48430199DA
:104390004FF0000A01EB400030F814200798204449
:1043A0001FFA80FC059890F80090039808E000BF81
:1043B0000EF803100AF1010A0138CA454B46DBD258
:1043C00002FA0AF1090403441AD5BCF17F0FF1D8AF
:1043D00099B21F29EED84FF68076C0F20F0606EA92
:1043E0000313129F01F0070163441EF80360BD42EE
:1043F00008FA01FB14BF26EA0B0146EA0B01D7E7D6
:10440000BCF17F0FD6D899B21F29D3D84FF680764A
:10441000C0F20F0601F0070106EA0313089F634488
:1044200008FA01F11EF80360002F0CBF26EA010113
:104430003143BDE75878079A10447F2801DC1429DE
:1044400004DD0027384609B0BDE8F08F5878002811
:10445000F8D089B2039140F21E01C2F2000109783E
:10446000A7F12002B1FA81F14FEA51181299009791
:104470000292002918BF012181EA080108915968B8
:1044800040F2200E019119780024CDE905315978C8
:104490004FF0010BC2F2000E049103E004980134C6
:1044A000844251D206990029F8D00299039B4843CF
:1044B0000199069E01EB400030F814C00798204493
:1044C00082B2059890F80090002007E0B9430EF8FA
:1044D00006100130013B48454E46DFD20CFA00F190
:1044E000090406EB030A17D57F2AF2D81FFA8AF1CE
:1044F0001F29EED801F007074FF68071C0F20F01B7
:1045000001EA0A118E18129D1EF80610A8450BFA32
:1045100007F7DBD116E000BF7F2ADAD81FFA8AF14D
:104520001F29D6D801F007074FF68071C0F20F019E
:1045300001EA0A118E18089D1EF80610002D0BFACC
:1045400007F7C3D03943C2E7009F7BE72DE9F0436B
:1045500085B001281DD146F6564791460D46C0F656
:1045600000070126042000211C220C23CDE900674E
:10457000FFF744FE012D5ED146F68647C0F60007E0
:104580000D20002116220A23CDE90067FFF736FE31
:10459000ADE046F65640C0F600000125CDE90050DA
:1045A000042000211C220C230026FFF727FE40F2E6
:1045B0000004C2F2000420787822C0F11501012025
:1045C00023460095FFF79CFE47F2D4572020C0F603
:1045D000000700BF2178F24351431E3109B2C2B235
:1045E0000F2023460095FFF78BFEB819013640785F
:1045F000052EEFD120782021A1EB800047F2E8576B
:104600004508462000264FF00108C0F6000700BF0D
:104610002178F2435143491B203109B2C2B20F2025
:104620002346CDF80080FFF76BFEB81901364078BD
:10463000042EEDD1A1E044F62510C2F29240A9FB70
:104640000001A9EB010001EB50001921A1EB90053D
:10465000A9B21F2916D8820890B208441F2888BF23
:1046600007320020012697B2002400BF284481B2FF
:10467000032007220B46009600F044FA0134E0B212
:104680008742F3D2B9F10A0F20D20020012500247D
:104690001F3081B2012006220B46009500F032FA4D
:1046A000002C04F10104E0B2F2D000200125002426
:1046B0001F3081B20A200B220B46009500F022FA2F
:1046C000002C04F10104E0B2F2D010E0002500203B
:1046D000002400BF1F3081B201200B220B46009541
:1046E00000F010FA002C04F10104E0B2F2D047F21D
:1046F000DA510DF10A08C0F6000140464A4601F0C1
:10470000F7FD40F2000447F2D45720200026C2F201
:1047100000040125C0F600072178F24351431E3101
:1047200009B2C2B20F2023460095FFF7E9FDB81980
:1047300001364078052EEFD19DF80A60EEB1404673
:10474000FBF714FD217800254843C0F120004708FD
:104750004FF001092078E9434843C01B203001B2E3
:10476000F2B20F202346CDF80090FFF7C9FD0135C6
:10477000A8B218F80060002EECD105B0BDE8F083B7
:104780002DE9F04182B015460E4607460120002172
:10479000642298460124FFF7D9FE384600F042F91A
:1047A00046F69847C0F60007042018211C22302343
:1047B000CDE90047FFF722FD322000F027F85C200A
:1047C00000215C220023009400F09CF95C20202151
:1047D0005C222023009400F095F95C2000215C22EB
:1047E0002023009400F08EF95C2000215C2220231D
:1047F000009400F087F930462946424600F052F80E
:1048000002B0BDE8F04100F023BC00002DE9F04308
:1048100085B047F2DA510DF10A080246C0F60001F0
:10482000404601F065FD40F2000547F2D4572020D4
:104830000026C2F200050124C0F600072978F243E1
:1048400051431E3109B2C2B232202B460094FFF709
:1048500057FDB81901364078052EEFD19DF80A6052
:10486000EEB14046FBF782FC297800244843C0F1B2
:10487000200047084FF001092878E1434843C01B56
:10488000203001B2F2B232202B46CDF80090FFF773
:1048900037FD0134A0B218F80060002EECD105B04D
:1048A000BDE8F0832DE9F04381B0904601288946A8
:1048B0001DD0B8BB40F2000647F2D6552020002498
:1048C000C2F200060127C0F6000500BF3178E243BE
:1048D00051431A3109B2C2B2612033460097FFF743
:1048E0000FFD281901344078032CEFD11AE040F273
:1048F000000647F2F05553200024C2F200060127BB
:10490000C0F600053178E24351431A3109B2C2B210
:10491000612033460097FFF7F3FC281901344078F3
:10492000032CEFD1B9F1010F1FD0B9F1000F37D12E
:1049300040F2000547F2D55720200024C2F20005BE
:104940000126C0F6000700BF2978E24351431D311C
:1049500009B2C2B26B202B460096FFF7D1FC381982
:1049600001344078042CEFD11AE040F2000547F200
:10497000E35748200024C2F200050126C0F60007D4
:104980002978E24351431D3109B2C2B26B202B4654
:104990000096FFF7B5FC381901344078042CEFD1AC
:1049A000B8F1010F1FD0B8F1000F37D140F2000469
:1049B00047F2D65720200026C2F200040125C0F697
:1049C000000700BF2178F24351431A3109B2C2B245
:1049D000752023460095FFF793FCB81901364078FF
:1049E000032EEFD11AE040F2000447F2F4575420AE
:1049F0000026C2F200040125C0F600072178F24328
:104A000051431A3109B2C2B2752023460095FFF70F
:104A100077FCB81901364078032EEFD101B0BDE81C
:104A2000F0830000F0B583B0012840D146F6285746
:104A3000C0F60007012504203A211C225223CDE9AB
:104A40000057FFF7DBFB40F2000447F2D45620206A
:104A50000027C2F20004C0F6000600BF2178FA4326
:104A600051431E3109B2C2B2522023460095FFF7CE
:104A700047FCF01901374078052FEFD147F2ED568A
:104A80004F2000270125C0F6000600BF2178FA4319
:104A90005143183109B2C2B2522023460095FFF7A4
:104AA0002FFCF01901374078022FEFD126E046F6AF
:104AB000E047C0F60007012504203A211C225223BA
:104AC000CDE90057FFF79AFB40F2000447F2DF56AA
:104AD0004F200027C2F20004C0F600062178FA43F6
:104AE00051431C3109B2C2B2522023460095FFF750
:104AF00007FCF01901374078032FEFD103B0F0BD68
:104B0000704700002DE9F04F86B07F284FF07F09F5
:104B10004FF07F0638BF81467F2A38BF16461F29CF
:104B20004FF01F0E4FF01F0738BF8E461F2B38BFA8
:104B30001F46A9EB060C864288BFA6EB090CAEEB1C
:104B400007088F424FF0FF314FF0FF3588BF01213A
:104B5000039188BFA7EB0E088642059688BF012502
:104B60005FEA0C40049561D00FFA88F8B8F1000FA5
:104B7000029700F093800FFA8CF5C8F100032A46E3
:104B80004545D8BF1AB240F21E03C2F2000318789E
:104B900002EBD2725310B0FA80F2DDF808C050096F
:104BA0006A42019000920DE019B291420498C8BF88
:104BB000814441450398BCBF86442B449142C8BF01
:104BC000A3EB08031FFA8EFABAF11F0F26D81FFABB
:104BD00089FBBBF17F0F21D84FF68070C0F20F0028
:104BE00000EA0E1C0CEB0B0640F2200BC2F2000B8D
:104BF0000EF007021BF80670012000FA02F20F986F
:104C00002C46019D27EA0201DDF808C0854208BF55
:104C100047EA0201009A25460BF80610E245C3D187
:104C200005981FFA89F18142BED168E09E45394658
:104C300084BF7146BE468E4561D840F21E00C2F266
:104C4000000000789145059A98BF4A46B0FA80F076
:104C5000013140F2200705924FEA501889B24FEA1D
:104C60000E124FF0010CC2F2000700BF059802F4CB
:104C7000C07505430EF007067C5D0F980CFA06F62A
:104C800024EA060380450EF1010E08BF44EA06033C
:104C9000714502F110027B55E8D130E0059891454D
:104CA000074684BF4F468146029EB94527D840F249
:104CB0001E00C2F200009E45007898BF764606F0BE
:104CC0000701012206F0180340F22006B0FA80F036
:104CD00002FA01F109EB0313C2F20006A7EB090780
:104CE0004009CA43334401370F9EB0421E7814BFB7
:104CF00016400E431E70013F03F10103F4D106B0CC
:104D0000BDE8F08F2DE9F04182B040F24420C2F2BC
:104D100000007821012244F62063FCF76BF800289C
:104D20004FF0000440F06E8140F244254FF42E40D5
:104D3000C2F20005ADF806000A260DF1060228466B
:104D4000782102230096FCF7B3F94FF400580DF1D7
:104D50000602284678210223ADF806800096FCF76B
:104D6000A7F94FF480570DF1060228467821022357
:104D7000ADF806700096FCF79BF94FF43040ADF8A3
:104D800006000DF106022846782102230096FCF762
:104D90008FF94FF44840ADF806000DF106022846A1
:104DA000782102230096FCF783F90DF106022846CC
:104DB00078210223ADF806400096FCF779F90DF151
:104DC0000602284678210223ADF806700096FCF70B
:104DD0006FF94FF48040ADF806000DF10602284649
:104DE000782102230096FCF763F94FF40140ADF8F7
:104DF00006000DF106022846782102230096FCF7F2
:104E000057F94FF47F40ADF806000DF10602284631
:104E1000782102230096FCF74BF94FF42140ADF8BE
:104E200006000DF106022846782102230096FCF7C1
:104E30003FF94FF42640ADF806000DF10602284672
:104E4000782102230096FCF733F94FF42840ADF89F
:104E500006000DF106022846782102230096FCF791
:104E600027F94FF4F850ADF806000DF10602284678
:104E7000782102230096FCF71BF94FF42440ADF88B
:104E800006000DF106022846782102230096FCF761
:104E90000FF94FF45340ADF806000DF10602284615
:104EA000782102230096FCF703F90DF1060228464B
:104EB00078210223ADF806400096FCF7F9F84FF48C
:104EC0005540ADF806000DF1060228467821022370
:104ED0000096FCF7EDF84FF47040ADF806000DF1C8
:104EE00006022846782102230096FCF7E1F84FF4E9
:104EF0005940ADF806000DF106022846782102233C
:104F00000096FCF7D5F84FF40850ADF806000DF107
:104F100006022846782102230096FCF7C9F84FF4D0
:104F20005A40ADF806000DF106022846782102230A
:104F30000096FCF7BDF84FF40070ADF806000DF1D7
:104F400006022846782102230096FCF7B1F84FF4B8
:104F50005B40ADF806000DF10602284678210223D9
:104F60000096FCF7A5F80DF10602284678210223E9
:104F7000ADF806800096FCF79BF84FF40D40ADF8B5
:104F800006000DF106022846782102230096FCF760
:104F90008FF84FF4A050ADF806000DF10602284638
:104FA000782102230096FCF783F84FF42F40ADF8E8
:104FB00006000DF106022846782102230096FCF730
:104FC00077F84FF43850ADF806000DF10602284688
:104FD000782102230096FCF76BF840F22000C2F221
:104FE00000004FF40071FBF7B6F800F031F840F222
:104FF0001A00C2F20000048040F21C00C2F200005D
:1050000004800124204602B0BDE8F08170B582B072
:1050100040F2442504464FF40140C2F20005ADF8C9
:1050200004000A2601AA2846782102230096FCF7EC
:105030003FF800208DF806000DF106022846782181
:1050400002238DF807400096FCF732F802B070BDDD
:105050002DE9F04FC1B00DF1040B40F244260BF1E5
:1050600001094FF000086FF07F050A24C2F2000624
:105070004FF0000A40F220008035C2F200002F18E5
:105080004AF0B0008DF80500304678215A460223D8
:105090008DF804800094FCF70BF8304678215A46CE
:1050A0000223ADF804800094FCF702F84FF480501E
:1050B000ADF80400304678215A4602230094FBF7ED
:1050C000F7FF40208DF80400484639468022FBF760
:1050D00029F8304678215A4681230094FBF7E8FFEF
:1050E000B5F5607F0AF1010AC4D141B0BDE8F08F87
:1050F00070470000B0B540F2E025C2F2000504465A
:1051000028460421FDF744FC04EB84002968400094
:105110008863B0BD40F29820C2F20000FDF7F8B8F5
:1051200040F29820C2F20000FDF71CB9FCF7BCBCAD
:105130007047000040F29820C2F20000FDF7FEB96F
:10514000FEE7000070B584B00446007E40B12669D9
:1051500086B120790DF10F0201210123B04716E03D
:10516000256904F10A062DB3207903213246012373
:10517000A8472AE0206801210DF10F026426CDE93D
:1051800000216921012201230296FCF739F99DF8DB
:105190000F000130C0B2022827D32569AD20A072CC
:1051A0003DB3207940F22122C2F2000212210123F4
:1051B000A8472DE0206864210122CDE90121692161
:1051C000032201230096FCF71BF93078412801D017
:1051D00003280AD1266966B1207940F22122C2F261
:1051E000000212210123B04712E04FF0FF3004B05B
:1051F00070BD40F2212220680121C2F20002642623
:10520000CDE900216921122201230296FCF7F8F86A
:105210000120E073002004B070BD0000F0B585B03F
:105220000446C07B50B1256916460F4655B120791A
:105230000DF1130282210123A84710E06FF0020054
:1052400005B0F0BD206801210DF113026425CDE900
:1052500000216921822201230295FCF7D1F89DF8F3
:105260001300002E0CBFB843384366698DF8130055
:1052700036B120790DF1130282210123B0470DE0F0
:10528000206858B101210DF113026427CDE90021F6
:105290006821822201230297FCF7C6FA002005B09C
:1052A000F0BD0000C17B002904BF0120704780B51C
:1052B00084B0D0F810C0BCF1000F06D000790DF119
:1052C0000F0201210123E0470EE0006801210DF1EA
:1052D0000F024FF0640CCDE9002169210122012366
:1052E000CDF808C0FCF78CF89DF80F00C0F38010D3
:1052F00004B080BD10B584B00446C07B58B1D4F86A
:1053000010C0BCF1000F0AD020790DF10F0230213E
:105310000123E04712E06FF0020004B010BD2068E6
:1053200001210DF10F024FF0640CCDE9002169213C
:1053300030220123CDF808C0FCF762F89DF80F0079
:10534000A17AD4F814C000F0FD02412908BF40F052
:105350000302BCF1000F8DF80F2006D020790DF16B
:105360000F0230210123E0470DE0206858B10121F0
:105370000DF10F026424CDE90021682130220123C0
:105380000294FCF751FA002004B010BD70B584B04F
:105390000446C07B00B3B1F5E16F98BF4FF4E16103
:1053A00040F6E440814228BF0146A1F5E16048F2A1
:1053B0001F51C5F2EB11A0FB0101A07A4E09032891
:1053C00018BFAD280CD1256985B120790DF10F02E8
:1053D00028210123A84716E06FF0020004B070BD39
:1053E0004128F0D04FF0FF3004B070BD206801219B
:1053F0000DF10F026425CDE9002169212822012346
:105400000295FBF7FDFF9DF80F00656900F00F00A6
:1054100040EA06108DF80F0035B120790DF10F022A
:1054200028210123A8470DE0206858B101210DF182
:105430000F026426CDE9002168212822012302966B
:10544000FCF7F2F9002004B070BD0000C27B002A16
:1054500004BF6FF002007047827A412A1CBF4FF0F0
:10546000FF3070470F2984BF6FF00100704770B59F
:1054700084B004690E46054634B100790DF10F027F
:1054800028210123A0470CE0006801210DF10F0243
:105490006424CDE900216921282201230294FBF72D
:1054A000AFFF9DF80F0000F0F00128466D69314311
:1054B0008DF80F1035B100790DF10F02282101236D
:1054C000A8470DE0006858B101210DF10F026426D4
:1054D000CDE900216821282201230296FCF7A4F9D6
:1054E000002004B070BD0000F0B585B00446C07B5C
:1054F0000E4600218DF8121050B3A07A1746AD2841
:105500004BD1256945B320790DF1130210210123F8
:10551000A84770072FD4B0073FD59DF813006569E1
:1055200000F0FB0067F3820006F0BF068DF8130061
:105530006DBB206888B301210DF113026425CDE90C
:1055400000216821102201230295FCF76DF924E067
:105550006FF0020005B0F0BD206801210DF11302CB
:105560006425CDE900216921102201230295FBF772
:1055700047FF7007CFD59DF81300656900F0FE0066
:105580003844002D06F0EF068DF81300D1D02079B5
:105590000DF1130210210123A847256935B12079A7
:1055A0000DF1130212210123A8470CE0206801210C
:1055B0000DF113026425CDE9002169211222012396
:1055C0000295FBF71DFF01209DF8131000FA06F26B
:1055D00021EA0200A37A002F18BF41EA0200412B02
:1055E0008DF8130004BF40F002008DF813006769C6
:1055F00037B120790DF1130212210123B8470DE0D4
:10560000206858B101210DF113026427CDE9002172
:105610006821122201230297FCF706F9276937B1A6
:1056200020790DF1120212210123B8470CE0206805
:1056300001210DF112026427CDE900216921122216
:1056400001230297FBF7DCFE9DF813109DF8120072
:10565000814211BF4FF0FF3040F22121C2F2000120
:10566000087008BF002005B0F0BD0000C27B002A12
:1056700004BF6FF002007047042984BF6FF001007F
:10568000704770B584B004690E46054634B10079A0
:105690000DF10F0236210123A0470CE00068012123
:1056A0000DF10F026424CDE9002169213622012386
:1056B0000294FBF7A5FE9DF80F0000F0FC0147F2F5
:1056C000DE40C0F60000825D28466D6911438DF80A
:1056D0000F1035B100790DF10F0236210123A847D3
:1056E0000DE0006858B101210DF10F026426CDE9EB
:1056F00000216821362201230296FCF795F800204C
:1057000004B070BD70B584B005690E460446002033
:105710008DF80F0055B120790DF10F0230210123D2
:10572000A847B0B14FF0FF3004B070BD2068012130
:105730000DF10F026425CDE90021692130220123FA
:105740000295FBF75DFE002818BF4FF0FF300028E0
:10575000E8D148F21F52A6F57A61C5F2EB129DF826
:105760000F0081FB02125109666900F0C70001EBCE
:10577000D27140EAC1008DF80F0036B120790DF1E9
:105780000F0230210123B0470EE02168012071B1E2
:105790000DF10F026426CDE9002008466821302271
:1057A00001230296FCF740F8002818BF0120404270
:1057B00004B070BDC17B002904BF0120704780B5D3
:1057C00084B0D0F810C0BCF1000F06D000790DF104
:1057D0000F0201210123E0470EE0006801210DF1D5
:1057E0000F024FF0640CCDE9002169210122012351
:1057F000CDF808C0FBF704FE9DF80F00C0F3401081
:1058000004B080BDC17B002904BF6FF00200704767
:10581000817A41291CBF6FF003007047B0B584B096
:105820000469054634B100790DF10F02012101230D
:10583000A0470CE0006801210DF10F026424CDE9BE
:1058400000216921012201230294FBF7D9FD9DF873
:105850000F00800602D4002004B0B0BD2C6934B122
:1058600028790DF10E02B9210123A0470CE0286828
:1058700001210DF10E026425CDE900216921B92233
:1058800001230295FBF7BCFD9DF90E0020EAE070B4
:1058900004B0B0BDC079C0F340007047002904BF18
:1058A0004FF0FF307047016002710376FFF74ABC8A
:1058B0002DE9F04184B00446C07B18B3A07A0328D8
:1058C00025D041284BD100254FF0640801270CE07A
:1058D0002068CDE90027CAB269210123CDF80880EC
:1058E000FBF78EFD0135052D49D02669601945F07D
:1058F0004801002E00F10502EAD02079C9B2012347
:10590000B047EFE76FF0020004B0BDE8F08100257A
:105910004FF0640801270CE02068CDE90027CAB2E7
:1059200069210123CDF80880FBF76AFD0135042DBC
:105930000CD02669601945F04401002E00F10502E3
:10594000EAD02079C9B20123B047EFE7276904F113
:1059500009024FB120794D210123B8470FE04FF0E4
:10596000FF3004B0BDE8F081206801216427CDE953
:10597000002169214D2201230297FBF741FD002000
:1059800004B0BDE8F081000070B584B0CC210122E4
:105990000446FFF743FC204604210122FFF7A4FD43
:1059A000E07BC8B1656914208DF80E0035B120790F
:1059B0000DF10E0223210123A8470DE0206858B104
:1059C00001210DF10E026426CDE900216821232278
:1059D00001230296FBF728FF204601210122012620
:1059E000FFF782FDE07BE0B1A07AAD2819D06569B0
:1059F00068208DF80F0035B120790DF10F022721B5
:105A00000123A8470DE0206858B101210DF10F02D4
:105A10006425CDE900216821272201230295FBF7A7
:105A200003FF204602210122FFF75EFD204640F6DB
:105A3000E441FFF7ABFC204603210122FFF754FDB0
:105A400020460F21FFF702FD204606210022FFF726
:105A50004BFD204600210022FFF746FD20464FF473
:105A60007A61FFF74FFE2046FFF744FC20460021F5
:105A7000FFF7FCFD20464FF400320023009600F0B3
:105A8000B7F804B070BD00002DE9F04385B00446BE
:105A9000807AFF2103288DF8131023D0412858D194
:105AA00000264FF064084FF001090DF1130507E0DF
:105AB0002079C9B22A460123B8470136052E48D0BD
:105AC000676946F04801002FF2D120680028F4D021
:105AD000CAB268210123CDE90059CDF80880FBF74F
