:10252A0075A15575A1AAE5B954F84405F5B9E4F5BC
:02253A00A122DC
:10253C00EF4E600D05A105A105A1EF1F70F21E80E5
:02254C00EF227C
:1024E700AD07AC06ED4C600E7FE87E0312253CED90
:0724F7001D70F11C80EE22B4
:04003E0043C6102283
:10206900C29FD29EC29DC2CDC2CC4387809002D569
:1020790012080C00000056E47B0AFAF9F89002D520
:10208900E0FCA3E0FDA3E0FEA3E0FF12074F9002EE
:10209900D9EBF09002D5E0FCA3E0FDA3E0FEA3E0BC
:1020A900FFE47B0AFAF9F812074F9002D5120800EB
:1020B9009002D9E0C3940574809480401F9002D5A2
:1020C900E0FCA3E0FDA3E0FEA3E02401FFE43EFE63
:1020D900E43DFDE43CFC9002D5120800E589540F6B
:1020E9004420F58943C9A09002D5A3A3A3E0F40431
:0920F900F58DD28ED299D29C2201
:082573003098FDC298AF9922D7
:08257B008F993099FDC29922ED
:0A255F00C2C7D2C5D2C475C2F8226B
:0825830030C0FDC2C0AFC1224F
:08258B008FC130C1FDD2C12255
:1024FE0075A15575A1AAEF600543B101800353B1D3
:07250E00FEE4F5A1F5FF2238
:0325A1008FFF2287
:0A2569005392CF4393304390302289
:072593005392DF4393202265
:07259A00439220439320222D
:1024B300D295122593D2947F057E0012253CC295B6
:0A24C3007F027E0012253CC2942225
:10254E00C295122593D2947F027E0012253CD2951D
:01255E00225A
:10245D00C294122593C2957F017E0012253CD29421
:0F246D007F027E0012253CC29412259AD295223E
:10247C00C294122593D2957F017E0012253CD294F2
:0C248C007F027E0012253CC29402259ABB
:10000600E49002E2F0D295D29412259A7F02FE8005
:100016001D30951F9002E2E004F0E0D394FA74805C
:100026009480400612254E7F01227F017E00122514
:080036003C80DEC2947F002231
:1022A2009002E2EFF0C2941225937F027E00122583
:1022B2003CE49002E3F09002E3E0C394087480945B
:1022C2008050419002E2E0FF5480C4131313540182
:1022D20024FF9295EF25E0F07F017E0012253CD28B
:1022E200947F017E0012253C9002E3E064077003B4
:1022F20012259AC2947F017E0012253C9002E3E0EF
:0523020004F080B2228E
:102363009002E1EFF0E49002E3F07F02FE12253CDD
:1023730012259AE49002E2F09002E2E0C39408741A
:102383008094805021C2947F027E0012253CD29417
:102393009002E3E0FF25E0F0309503E004F09002C3
:1023A300E2E004F080D29002E1E0700512247C8028
:0A23B3000312245D9002E3E0FF2214
:101C240043483535345F4849445F54505F5631303A
:101C3400302044454255470A2044454255475F44B5
:101C44004154413A204A756C2032372032303235C3
:101C540030303A30333A3331200A006368697020F7
:101C6400756E697175652069643A2530327820256E
:101C740030327820253032780A00436F70797269E7
:101C840067687428632932303235205349474D45FB
:101C94004E582C20416C6C207269676874732072F2
:101CA400657365727665642E0A00436F6D6D6572A7
:101CB4006369616C20757365206F6620746869734D
:101CC400206F70656E736F7572636520736F6674D1
:101CD400776172652069732070726F6869626974D4
:101CE40065642E0A0056696F6C61746F7273207795
:101CF400696C6C20626520696E76657374696761CE
:101D040074656420666F72206C6567616C2072650F
:0F1D140073706F6E736962696C6974792E0A005F
:1019C60060500184000000000000000000000000DC
:1019D6000000000000000000000000000000000001
:1019E60000000000000000000000000000000000F1
:1019F60000000000000000000000000000000000E1
:101A060000000000000000000000000000000000D0
:101A1600000000005201D400000000000000000099
:101A26000000000000000000005001E60E03530015
:101A3600490047004D0045004E005800602801F758
:101A46002803550053004200320049004900430074
:101A56005F004300540050005F0043004F004E00FB
:081A6600540052004F004C0037
:101EEF0012252A7F057E001224E71220697BFF7AD4
:101EFF001C7924120F9A7BFF7A1C795F903FFCE4C8
:101F0F0093FF7401939002D9CFF0A3EFF0903FFEAF
:101F1F00E493FF7401939002DBCFF0A3EFF0903FB7
:101F2F00FAE493FF7401939002DDCFF0A3EFF01268
:101F3F000F9A7BFF7A1C797E120F9A7BFF7A1C799E
:101F4F00AE120F9A7BFF7A1C79E9120F9A7E007FEF
:101F5F00507D007B017A017984120883E49001D6C9
:101F6F00F0A3F0A3F0A3F09001E5F0121D2390026F
:101F7F00C07406F09001F67410F090021F7428F0F0
:101F8F00122307D2AF9002C9E060FAC291D288D271
:101F9F00A87F011224FEE4FF1225A112240B80F664
:03000300022515BE
:10251500C0E0C083C082C2A89001E57401F0D082FA
:05252500D083D0E0327C
:1023BD00436F6F7264696E61746520496E666F0A52
:1023CD00002530327809000A004754393131305F29
:1023DD0049504144332F3420545020496E69740ABA
:1023ED000063707420783A256420793A25640A00D8
:0E23FD00726174696F3A2025662025660A0019
:101A6E00540306814F8157815F8167816F81778132
:071A7E007F8187818F8197B2
:0B221C007B019002DF04F07F4E7E810A
:102227009002DAEEF0A3EFF0A3EBF0A3EAF0A3E954
:10223700F0E49002E1F01224B37FBA1222A2120056
:10224700069002DAE0FF1222A21200069002DAA339
:10225700E0FF1222A2120006E49002E0F09002DFF3
:10226700E0FFA3E0FEC39F50299002DCE0FBA3E060
:10227700FAA3E0F98E82758300120664FF1222A288
:102287001200069002E1EFF070089002E0E004F01F
:0B22970080CB12254E9002E1E0FF22F8
:0E2102007B017A0079849002DFF07F4E7E81AF
:102110009002DAEEF0A3EFF0A3EBF0A3EAF0A3E96C
:10212000F01224B37FBA1222A21200069002DAE063
:10213000FF1222A21200069002DAA3E0FF1222A2EE
:102140001200061224B37FBB1222A2120006E490F2
:1021500002E0F09002DFE0FFA3E0FEC39F502EEF0D
:1021600014B506047F0080027F011223639002DC15
:10217000E0FBA3E0FAA3E0F99002E0E0F5827583CA
:1021800000EF1206A39002E0E004F080C602254EA4
:101E0D00E49002D5F0900084F07B017A0079849003
:101E1D0002DF04F07F407E801222277B017A007959
:101E2D00849002DF740EF07F407E811221109000AD
:101E3D008BE0FE90008AE07C002400FFEC3E9001D8
:101E4D00D6F0A3EFF090008DE0FE90008CE0240022
:101E5D00FFEC3E9001D8F0A3EFF07BFF7A2379BD24
:101E6D00120F9AE49002D5F09002D5E0FFC3940EC4
:101E7D007480948050257BFF7A2379CE74842FF55E
:101E8D0082E43400F583E0FF9002D9E4F0A3EFF093
:101E9D00120F9A9002D5E004F080CD7BFF7A237962
:101EAD00D4120F9A7FC880307401122102900084E1
:101EBD00E030E72B7409122102900086E07020A318
:101ECD00E0701CA3E07018A3E07014900084F07A09
:101EDD0000798412221C7F0F7E001224E780C97FB7
:021EED000022D1
:101D23007BFF7A2379D6120F9A122569D296C2B213
:101D33007F077E0012253CC2967F787E0012253CE9
:101D4300D2967F3C7E001224E7D2B2121E0D121AE5
:101D5300FD9001D67404F0A374B0F0A37403F0A350
:101D63007484F0E4A3F0A3F0A3F09001D6E0FCA305
:101D7300E0FDE41201F1A804A905AA06AB07E4FFFC
:101D8300FE7D807C4512014F9001DD120800900119
:101D9300D8E0FCA3E0FDE41201F1A804A905AA061A
:101DA300AB07E4FFFE7D807C4512014F9001E112F9
:101DB30008007BFF7A2379EE9001D6E0FFA3E09041
:101DC30002D9CFF0A3EFF09001D8E0FFA3E0900297
:101DD300DBCFF0A3EFF0120F9A7BFF7A2379FD900C
:101DE30001DDE0FCA3E0FDA3E0FEA3E0FF9002D948
:101DF3001208009001E1E0FCA3E0FDA3E0FEA3E0F4
:0A1E0300FF9002DD120800020F9AA2
:10240B009001E5E0640170201216C3EF64017011B6
:10241B007B017A0179849001D4E0FCA3E0FD1213D7
:0B242B00B2E49001E5F0D2A87F00228F
:1016C3007B017A0279D99002DF740112210B900217
:1016D300D9E0FE54807002FF22EE540F9002D9F03D
:1016E300E49002D5F0A3F09002C0E0FF9002D9E0AD
:1016F300D39F4002EFF0E49002D7F09002D9E0FFCD
:101703009002D7E0FE6F7003021960EE25E0240615
:10171300F582E43403F583E0FEA3E0FF7B017A0066
:1017230079849002DF7405F0122110900084E07038
:1017330019FFFEFDFCA3E0F8A3E0F9A3E0FAA3E0A0
:10174300FBC31207EF7003021957900084E0FD7E7C
:10175300007401A805088005C333CE33CED8F9FF42
:101763009002D5E04EF0A3E04FF0ED75F008A4240D
:1017730084F582E43401F5837401F0900084E0FF82
:1017830075F008A42485F582E43401F583EFF09025
:1017930001DCE064019000867076E0FE900085E055
:1017A3007C002400FDEC3EFCE41201F19001DDE03D
:1017B300F8A3E0F9A3E0FAA3E0FB12004612022A21
:1017C300900084E075F008A42488F582E43401F5E0
:1017D30083EEF0A3EFF0900088E0FE900087E07CBA
:1017E300002400FDEC3EFCE41201F19001E1E0F87D
:1017F300A3E0F9A3E0FAA3E0FB12004612022A9049
:101803000084E075F008A42486F582E43401807432
:10181300E0FE900085E07C002400FDEC3EFCE41239
:1018230001F19001DDE0F8A3E0F9A3E0FAA3E0FB06
:1018330012004612022A900084E075F008A4248660
:10184300F582E43401F583EEF0A3EFF0900088E035
:10185300FE900087E07C002400FDEC3EFCE41201D6
:10186300F19001E1E0F8A3E0F9A3E0FAA3E0FB12B1
:10187300004612022A900084E075F008A42488F53B
:1018830082E43401F583EEF0A3EFF0900084E0FFEF
:1018930075F008A4248AF582E43401F583E4F0A307
:1018A3007430F09001DAE06401704EEF75F008A433
:1018B3002486F582E43401F583E0FEA3E0FFD394AC
:1018C30000EE9410900084E0401375F008A4248681
:1018D300F582E43401F583E4F0A3F0801CFDC3E456
:1018E3009FFF74109EFEED75F008A42486F582E434
:1018F3003401F583EEF0A3EFF09001DBE0640170B7
:1019030053900084E0FF75F008A42488F582E43442
:1019130001F583E0FCA3E0FDD39400EC94104014A4
:10192300EF75F008A42488F582E43401F583E4F02C
:10193300A3F08020900084E0FFC3E49DFD74109C1D
:10194300FCEF75F008A42488F582E43401F583ECF8
:10195300F0A3EDF09002D7E004F00216FEE490024B
:10196300D7F09002C0E0FF9002D7E0FE6F6036A888
:10197300067E007401088005C333CE33CED8F9FF49
:101983009002D5E05EFEA3E05F4E7011A3E075F018
:1019930008A42484F582E43401F583E4F09002D7AB
:1019A300E004F080BD9002D5E0FFA3E09001D4CF26
:1019B300F0A3EFF0E49002D8F07A0279D812221C57
:0319C3007F01227F
:1024CD006461746120666C61736820726561643A41
:0A24DD0020002530327809000A00C3
:101AFD007585C0E49002D5F09002D5E0C3940674CC
:101B0D00809480501EE0FF25E0F58475868E741A52
:101B1D002FF582E43403F583E58EF09002D5E004D1
:101B2D00F080D57BFF7A2479CD120F9AE49002D5FF
:101B3D00F09002D5E0FFC394067480948050257B0D
:101B4D00FF7A2479DF741A2FF582E43403F583E0EC
:101B5D00FF9002D9E4F0A3EFF0120F9A9002D5E0B6
:101B6D0004F080CD7BFF7A2479E5120F9A90031A49
:101B7D00E0FFF47007A3E0F470028015EF5480606D
:101B8D000F9001DA7401F090031AE0547FF0800594
:101B9D00E49001DAF090031CE0FFF47007A3E0F489
:101BAD0070028015EF5480600F9001DB7401F0908E
:101BBD00031CE0547FF08005E49001DBF090031FDF
:101BCD00E0640A60149001D6E07002A3E0703290D8
:101BDD0001D8E07002A3E0702890031AE0FEA3E0A4
:101BED007C002400FFEC3E9001D6F0A3EFF09003B3
:101BFD001CE0FEA3E02400FFEC3E9001D8F0A3EF23
:101C0D00F090031EE0640170047F0180027F00905C
:071C1D0001DCEFF07F012262
:101FAF001201010000000040861AE3E50000010263
:101FBF000001040309040922A102094215002501A9
:101FCF0075019501810295078101750809519501E8
:101FDF00810205012600107510550E651109303567
:101FEF00004679088102260010464C05093181020E
:101FFF00050D09488102C0050D0904A101850105E0
:10200F000D27FFFF00007510950109568102095435
:10201F001500257F950175088102850209559501E7
:10202F00250AB10285030600FF09C5150026FF002A
:10203F007508960001B102C009022200010100805B
:10204F002009040000010300000009210001000124
:0A205F002200000705820340000183
:101A85004102C90041026800420266000042022488
:101A950000004102C0004102CE006054026B00000C
:101AA5000000000000000000000000000000000031
:101AB5000000000000000000000000000000000021
:101AC5000000000000000000000000000000000011
:101AD5000000000000000000000000000000000001
:101AE50000000000000000000000000000000000F1
:071AF50000004202CC0000DA
:10230700E5A1645470559002C0E070037406F09024
:1023170002C0E0D3940A4003740AF0C2EAE4F5E28B
:1023270075D18053D1FB53E2BF75E50075E4427563
:10233700EB0475D41275ED0075EC0053EAF375DC08
:1023470002F5D5F5E343E22943D10175D8FF75E1DD
:0C23570007D2EA9002C9F0900268F02260
:102498009002DEEDF0FF7E0078427C007D0112069E
:0B24A800259002DEE0F5D553D4FC22A5
:030043000208AF01
:1008AF00C0E0C0F0C083C082C0D075D01020D90383
:1008BF00020EE1E5D9543F7003020ED224E070031B
:1008CF00020D2624F0601A240E6003020EDF75D588
:1008DF0000E5D454FC4402F5D4900268E4F0020E13
:1008EF00DFE5DC54FC4402F5DCAFDB9002D3E4F02F
:1008FF00A3EFF09002CEE4F09002D3E07004A3E0F7
:10090F0064086003020CEE900007E0FF900269E4B8
:10091F00F0A3EFF0E07F00FE900269F0A3EFF090FC
:10092F000006E0FDEDFF900269EEF0A3EFF09002FC
:10093F00D3E4F0A3F0900001E09002BFF09000002C
:10094F00E0546060449002BFE024FE7003020CF696
:10095F00147003020CF624FA24FD4003020CF62453
:10096F000B7023900002E0FF64026004EFB40313E6
:10097F00900000EFF09002C0E0900001F09002D3E1
:10098F00020CDD020CEE020CEE9002BFE0B40B0085
:10099F004003020CEC9009ABF8282873020CC30239
:1009AF000C0E020CEC020C49020CEC020BCC0209EF
:1009BF00CC020CEC020BD8020BFD020CF6900003DC
:1009CF00E024FE6071147003020AEE24E17003024A
:1009DF000A9524216003020B4478267C027D017B5B
:1009EF00FF7A1F79AF7E007F12120625900266E014
:1009FF007002A3E0700A900224E07002A3E0601C72
:100A0F00900266E0FCA3E090022EF0ECA3F09002BF
:100A1F0024E0FCA3E0900230F0ECA3F09002CF743E
:100A2F0001F0A37402F0A37426F09002D3E4F0A3B4
:100A3F007412F0020B4C78267C027D017BFF7A202A
:100A4F0079477E007F221206259002C0E075F041A3
:100A5F00A42441FEE435F0900222F0A3CEF09002E0
:100A6F0022E0FCA3E090023FF0ECA3F09002CF74E1
:100A7F0001F0A37402F0A37426F09002D3E4F0A364
:100A8F007422F0020B4C78267C027D017BFF7A20CA
:100A9F0079067E007F08120625782E7C027D017B69
:100AAF00FF7A1F79C57E007F381206259002D27417
:100ABF0038F09002C0E09002CAF09002CF7401F0BB
:100ACF00A37402F0A37426F0900222E0FFA3E0903B
:100ADF0002D3CFF0A3EFF09002CE7401F0805E90BE
:100AEF000002E0603724FE60160470499002CF7454
:100AFF0001F0A37401F0A374E6F09001F680119059
:100B0F0002CF7401F0A37401F0A374F7F090021FE9
:100B1F00E0FF9002D3E4F0A3EFF080219002CF74B6
:100B2F00FFF0A3741FF0A374C1F09002D3E4F0A3FD
:100B3F007404F080089002D374FFF0A3F09002D3F6
:100B4F00E0FEA3E0FFD390026AE09F900269E09E6F
:100B5F004005EEF0A3EFF0EFF47002EEF470030235
:100B6F000CF6900269E0FEA3E0FFC39440EE940000
:100B7F0040067E007F4080009002D3EEF0A3EFF09E
:100B8F009002D3E0FEA3E0FF78007C007D0190028D
:100B9F00CFE0FBA3E0FAA3E0F91206259002D3E021
:100BAF00FEA3E0FFC390026AE09FF0900269E09E0F
:100BBF00F09002D0EE8FF01206C5020CF6900002F4
:100BCF00E0FF900269E4020CE6900220E090000042
:100BDF00F0C390026AE09401900269E09400500320
:100BEF00020CF69002D3E4F0A304F0020CF690008E
:100BFF0002E0900220F09002C97401F0020CF6900E
:100C0F000000E0541F6402702E900004E024FE6088
:100C1F001D2481600E14701CE5D454BC4402F5D41D
:100C2F00020CF6E5D254BC4402F5D2020CF653D4B2
:100C3F0073020CF6020CEE020CEE900000E0541F53
:100C4F00FD701F900003E0FE900002E0FBEB6401DB
:100C5F004E700D90204E9330E503020CF6020CEE11
:100C6F00807DED6402704B900003E0FE900002E087
:100C7F00FDED4E703B900005E0FE900004E0FDEDB1
:100C8F00FFEE702AEF24FE60112481601714701E8E
:100C9F00E5D454BF4403F5D4804DE5D4547F440CC0
:100CAF00F5D48043E5D254BF4403F5D28039802F69
:100CBF00802D802B900000E4F0A3F0900269E0FEFD
:100CCF00A3E0FFC39402EE94009002D34008E4F037
:100CDF00A37402F08011EEF0A3EFF0800A80009071
:100CEF0002D374FFF0A3F09002D3E0FEA3E0FFBEA7
:100CFF00FF0FBFFF0C9002BF74FFF075DCCF020E29
:100D0F00DFD3EF9440EE940050048FDD800375DD48
:100D1F000075DCC0020EDF9002BFE024FB700302FF
:100D2F000EBB146003020ECA900269E0FEA3E0FF3F
:100D3F00C39440EE9400400A7C007D407E007F40CB
:100D4F0080009002D3EEF0A3EFF09002CEE070039C
:100D5F00020E729002D3A3E0900221F09002CBE436
:100D6F00F09002CAE07003020E369002D2E0FFC389
:100D7F0074419FFE900221E0C39E405AEFFD7441E3
:100D8F009DFDE49400FCCEECCEEDC0E074C52FF9D0
:100D9F00E4341FFA7BFFE9C0E09002CBE02400F9B6
:100DAF00E43400C8E9C8FC7D01D0E0F9D0E0FF12BF
:100DBF0006259002D2E0FFC374419FFF9002CBE063
:100DCF002FF0900221E0C39FF09002CAE014F09040
:100DDF0002D2E4F0803F900221E0FF7E009002D229
:100DEF00E024C5F9E4341FFA7BFFE9C0E09002CBA1
:100DFF00E02400F9E43400C8E9C8FC7D01D0E0F933
:100E0F00120625900221E0FF9002D2E02FF090020F
:100E1F0021E4F080129002CAE06003020D7090028C
:100E2F00D27408F0020D70900221E0FF60627E0024
:100E3F009002D2E02406F9E43420FA7BFFE9C0E007
:100E4F009002CBE02400F9E43400C8E9C8FC7D012E
:100E5F00D0E0F9120625900221E0FF9002D2E02F98
:100E6F00F0802D9002D3E0FEA3E0FF78007C007DA0
:100E7F00019002CFE0FBA3E0FAA3E0F91206259060
:100E8F0002D3E0FEA3E0FF9002D0EE8FF01206C572
:100E9F009002D3E0FEA3E0FFC390026AE09FF090C0
:100EAF000269E09EF08FDD63DC408024900269A32D
:100EBF00E0FFE5E354804FF5E3800375DD0075DC5B
:100ECF0002800DAFDB9002D3E4F0A3EFF063DC8080
:100EDF00C2D930D8179002C9E4F0900268F075DCDF
:100EEF000275D412F5E3C2DAC2D9C2D830DA23C2FE
:100EFF00DAE5DA30E21FE5A220E7FB75A15575A10F
:100F0F00AA75A98143870275A15575A1AA75A90074
:100F1F00800375D8FFD0D0D082D083D0F0D0E0320C
:1013B2009002D5EBF0A3EAF0A3E9F0A3ECF0A3EDE1
:1013C200F0E49002DBF0A3F0A3F0ED4C700C90027D
:1013D200CCE07002A3E07002FF22E5A16454600336
:1013E2000216C090026B04F09002C0E0FF75F00894
:1013F200A4246CF582E43402F5837401F0EF75F0F5
:1014020008A4246DF582E43402F5837401F0E490BB
:1014120002DBF09002DAF09002C0E0FF9002DAE024
:10142200FE6F7003021581C8EEC874017E00088049
:1014320005C333CE33CED8F9FF9002D8E05EFCA3C9
:10144200E05F4C700F9002CCE05EFEA3E05F4E7056
:10145200030215789002DAE0FF74017E00C8EFC83B
:10146200088005C333CE33CED8F9FF9002D8E05EB0
:10147200FEA3E05F4E70069002DCE004F09002D51D
:10148200E0FBA3E0FAA3E0F99002DAE0FF75F008CE
:10149200A4F58285F083120664FE9002DBE075F00B
:1014A20008A4246CF582E43402F583EEF0EF75F0C3
:1014B20008A4FFE92FF9EA35F0FA90000112066458
:1014C200FF9002DBE0FE75F008A4246DF582E4349F
:1014D20002F583EFF09000021206DBFFEE75F008D2
:1014E200A4246EF582E43402F583EFF09000021238
:1014F20006DBE5F0FF9002DBE0FE75F008A4246F46
:10150200F582E43402F583EFF09000041206DBFF6B
:10151200EE75F008A42470F582E43402F583EFF04E
:101522009000041206DBE5F0FF9002DBE0FE75F0AE
:1015320008A42471F582E43402F583EFF0900006EA
:101542001206DBFFEE75F008A42472F582E4340281
:10155200F583EFF09000061206DBE5F0FF9002DB68
:10156200E075F008A42473F582E43402F583EFF009
:101572009002DBE004F09002DAE004F00214199029
:1015820002DBE0FF9002DDF09002D8E0FDA3E090E4
:1015920002CCCDF0A3EDF0EF70059002DB04F090E9
:1015A20002DBE09002DAF09002C0E0FF9002DAE0A3
:1015B2006F7003021642E0FF75F008A4246CF582F6
:1015C200E43402F583E4F0EF75F008A4246DF582AB
:1015D200E43402F583E4F0EF75F008A4246EF5829A
:1015E200E43402F583E4F0EF75F008A4246FF58289
:1015F200E43402F583E4F0EF75F008A42470F58278
:10160200E43402F583E4F0EF75F008A42471F58266
:10161200E43402F583E4F0EF75F008A42472F58255
:10162200E43402F583E4F0EF75F008A42473F58244
:10163200E43402F583E4F09002DAE004F00215A942
:101642009002DDE0FF70047F0180009002C0E0FEA6
:1016520075F008A4246EF582E43402F583EFF0EE0F
:1016620075F008A424049002DAF0900268E070FA9F
:101672009002687401F0FB7A02796B9002DAE0FF63
:10168200D3944040047D408003CDEFCD1224989046
:1016920002DAE0D39440401B900268E070FA9002B4
:1016A200687401F0FB7A0279AB9002DAE024C0FDA3
:1016B2001224989002DCE06005E4F00214107F012D
:0116C2002205
:10004600EC4D6011E8497017ED33EC3304600DE4B4
:10005600FCFFFEFD22E933E8330470F80202961233
:10006600026158046009E4CC248150062850090234
:1000760002A028400302029DC0E0EB4A7044B9800A
:1000860006D0E0FB02028CEF4E701CBD8008EBFF31
:10009600EAFEE9FD80EBE98DF0A4FEE5F002012F12
:1000A600E9CDF9EAFEEBFFEF89F0A4FCE5F0CE8995
:1000B600F0A42EFFE435F0CD89F0A42DFEE435F052
:1000C6008067EF4E7005BD80D780C3EF8BF0A4AC80
:1000D600F0EE8BF0A42CFCE435F0F8EF8AF0A42CBB
:1000E600E5F038FCE433CB8DF0A42CFCE5F03BF8CE
:1000F600EE8AF0A42CFCE5F038F8E433CF89F0A4BE
:100106002CFCE5F038CF3400CE89F0A42FFFE5F0C3
:100116003EFEE433C98DF0A42EFEE5F039CD8AF01B
:10012600A42FFFE5F03EFEE43DFD33D0E0FB500793
:100136000BBB000F0202A0EC2CFCEF33FFEE33FEEC
:06014600ED33FD0202781A
:10014C000202A0EC5D046005E859047003020296FB
:10015C00120261580460F6EC4860F2EC7004FDFE8B
:10016C00FF22C860DB2481C85009C3986002500686
:10017C0002029D9850CAF582E9294B4A7005AB8260
:10018C0002028C75F0007C1A7880C3EF9BEE9AED1E
:10019C0099400DC3EF9BFFEE9AFEED99FDE842F0FE
:1001AC00DC23ACF0D0E0FFD0E0FED0E0FDAB822051
:1001BC00E7101BEB60BAEC2CFCEF33FFEE33FEEDDB
:1001CC0033FD020278E803F830E705C0F075F00063
:1001DC00EF2FFFEE33FEED33FD40B830E7C280AABF
:1001EC0075F020800E75F010800575F0087D007E8E
:1001FC00007F003392D530D5031207E1EC33401069
:10020C00EF33FFEE33FEED33FDEC33FCD5F0ED2296
:0E021C00E5F0247EA2D513CC92E7CDCEFF22D2
:10022A00EDD2E7CD33EC3392D524814006E4FFFECC
:10023A00FDFC22FCE4CFCECDCC24E0501174FF802B
:10024A00EDC3CC13CCCD13CDCE13CECF13CF0470C8
:07025A00F030D5DE0207E1E0
:100F2F00E50824D9F582E43402F583E00508229020
:100F3F0002D63007039002D9E475F00112083D0282
:100F4F00064B2000E97F2ED2008018EF540F24901B
:100F5F00D43440D4FF30040BEF24BFB41A00500335
:100F6F002461FFE50960021509050CE50C70020507
:100F7F000B30070E9002D6E475F00112083DEF0218
:100F8F0006910224367403D2078003E4C207F508E2
:100F9F009002D6120854E4F509F50BF50CE509603B
:100FAF00077F20120F7280F5750AFFC201C200C2BF
:100FBF0002C203C205C206C208120F3EFF700D30F7
:100FCF0007057F00120F83AF0CAE0B22B4255FC253
:100FDF00D5C204120F3EFF24D0B40A00501A75F088
:100FEF000A780930D50508B6FF0106C6A426F620F3
:100FFF00D5047002D20380D924CFB41A00EF500465
:10100F00C2E5D204021275D20180C6D20080C0D2CE
:10101F000280BCD2D580BAD20580B47F20120F7265
:10102F002002077401B5090040F1120F2FFF120FB4
:10103F0072020FACD208D2068095120F2FFB120F3F
:10104F002FFA120F2FF94A4B700679737A137BFF21
:10105F0020022EE509602A7E008E8275830012061B
:10106F006460060EEE650A70F0C2D5EBC0E0EAC010
:10107F00E0E9C0E0EE1212D6D0E0F9D0E0FAD0E00D
:10108F00FB12064BFF60AAEBC0E0EAC0E0E9C0E04C
:10109F00120F72D0E02401F9D0E03400FAD0E0FB57
:1010AF00E50A0460DCD50AD98087D20280A2121229
:1010BF00B860F7E50A7001041202ABA90A600DE5EA
:1010CF000A600914F50A121360EF60F3EA30E702C1
:1010DF00F404C3995079EAF4250A0430E701E404D3
:1010EF00F50A800D1212B860C1EA050A250A12022C
:1010FF00ABEA900305F030E701E4250A04D50A04B2
:10110F00200501141212D6E4C0E0121360900305FB
:10111F00E0601320E70714F0120F5A802204F0D07A
:10112F00E014C0E07F00120F5AE50A6007120F515A
:10113F00150A800B300503120F51D0E0020FACD00F
:10114F00E00480C41212B8609EE50A041202AB904C
:10115F000305EAF0E50A20050260010424041212D7
:01116F00D6A9
:1011700074FF04C0E0121360120F5AE50A20050242
:101180006003120F51D0E0B50AE87F45120F64905A
:101190000305E07F2B30E7047F2DF404C0E0120F3D
:1011A00072D0E075F00A84C0F0120F5BD0E0120F2D
:1011B0005B020FAC791080027908C206C208800871
:1011C000D2D5790A8004790AC2D5E50A047002F5FD
:1011D0000AE4FAFDFEFF120F2FFC7B082001131218
:1011E0000F2FFD7B1030000A120F2FFE120F2FFF62
:1011F0007B20EC3382D592D55013C3E43000069F98
:10120000FFE49EFEE42001039DFDE49CFCE4CBF89A
:10121000C201EC700CCFCECDCCE824F8F870F3808E
:1012200017C3EF33FFEE33FEED33FDEC33FCEB334E
:10123000FB994002FB0FD8E9EB300105F8D0E0C480
:1012400048B201C0E00AEC4D4E4F78207B0070C2DE
:10125000EAB50A0040BCC0E01212D8D0F0D0E020BD
:101260000104C4C0E0C4B201C0F0120F5BD0F0D5DD
:10127000F0EB020FAC12085D10495311B458101A6C
:101280004C10164211B84F11C04411C049102F43E1
:1012900011C65510F34611534510BD471393501016
:1012A0001E2D10222E10452B102623104320137CB8
:1012B0002A0FDE480000103DE50AB4FF03750A0658
:1012C000120F2FFC120F2FFD120F2FFE120F2FFFE8
:1012D0009002FE0202E8790AA2D520031430050923
:1012E000B910020404B9080104A2D5200602500175
:1012F000042002689202B509005034C0E07F20301B
:1013000003197F30A20272067205500F12132FC20A
:1013100002C206C205C2087F30800F300503E9C053
:10132000E0120F72300503D0E0F9D0E0B509CC30FF
:1013300005177F30B9100C120F727F583004077FE9
:10134000788003B90803120F723002057F2D020F57
:10135000727F202008F87F2B2006F322920280CF94
:101360007F00B40700500B24FEF582E43402F583BD
:10137000E0FF22286E756C6C2900D201120F2F300D
:1013800001F8C201780930D50108F6020FDE2D50B0
:10139000434958120F2F2403B405004001E4901371
:1013A0008E93120F63743A120F63D203750904020D
:0213B00011B476
:10026100E9D2E7C933E833F892D5EDD2E7CD33ECE3
:0702710033FC5002B2D5225C
:10027800EC30E7100FBF000C0EBE00080DBD0004E7
:100288000BEB6014A2D5EB13FCED92E7FD2274FF93
:10029800FCFDFEFF22E480F8A2D574FF13FC7D80EC
:0302A800E480EF00
:1002AB00F920E73624F950037907E4F42402FBE53F
:1002BB0082158270021583DBF6E024FB501BE9608C
:1002CB0014E4F0E582158270021583E004F0B40AA1
:0D02DB0008E4F0D9EE7401F00A22C2D52229
:1002E800ED33EC3392D5FA602AB4FF33EDC2E77BE5
:1002F800FF60067A03790DE4227A03791620D50483
:100308007A037911224E614E002B494E46002D4941
:100318004E4600E47A08F0A3DAFC7B00740722C09A
:1003280083C082ECC0E0EDC0E0EEC0E0EFC0E0EAE0
:1003380075F010A4CAABF075F04DA42BFBE435F0B2
:10034800FCEA2410FAEB34C5FBEC34D9FCEDC2E727
:10035800FF75F056A4F42411C5F0F434C58FF0A449
:100368002AE5F03BE43CF020E714120515D0E0FF45
:10037800D0E0FED0E0FDD0E0FC12014F8014F40480
:10038800120515D0E0FFD0E0FED0E0FDD0E0FC1271
:100398000046D082D083E0FAEDD2E7CD33EC3324A7
:1003A80082FBE4C3CF33CFCE33CECD33CD33DBF3B3
:1003B8007B0775F00A846004F0A31B0AE5F0F0A33C
:1003C8008FF0740AA4FFACF08EF0740AA42CFEAC73
:1003D800F050010C8DF0740AA42CFDE435F0F0A364
:0503E800DBDE740722BA
:1003ED00020296E86480F8E933E83360110460F0A6
:1003FD00ED33EC337009E8FCE9FDEAFEEBFF220476
:10040D0060DED3EB9FEA9EE99DE8C2E78CF0C2F770
:10041D0095F0400CE8CCF8E9CDF9EACEFAEBCFFB3C
:10042D0012026185D0F05804700320D5B3E8047032
:10043D00075002B2D50202A092D5EC0460F7E4CCCD
:10044D00C0E0C398F8603B94186008400DD0E0FB05
:10045D00020278E4FBFAC9FC8028E830E406E4C91E
:10046D00FBE4CAFCE830E305E4C9CACBFCE8540759
:10047D006010F8C3E913F9EA13FAEB13FBEC13FC64
:10048D00D8F130F52FC3E49CFCEF9BFFEE9AFEED07
:10049D0099FDD0E0FBEF4E4D4C701222DB030202B2
:1004AD009DEC2CFCEF33FFEE33FEED33FDED30E72D
:1004BD00EB020278EF2BFFEE3AFEED39FDD0E0FBBB
:1004CD0050130BBB00030202A0ED13FDEE13FEEF64
:0804DD0013FFEC13FC0202788E
:1004E5003F8000004120000042C80000447A00001F
:1004F500461C400047C35000497424004B189680A1
:100505004CBEBC205A0E1BCA6753C21C749DC5AE97
:10051500FB60065407601C2323120543EB54386027
:100525000912052F12053E120046ECF8EDF9EEFA18
:10053500EFCB22EB12053E80F1543803241C9004C6
:10054500E5FE93FC0EEE93FD0EEE930ECE93FF2289
:030000000221904A
:0C219000787FE4F6D8FD7581210221D78C
:10055500E709F608DFFA8046E709F208DFFA803E88
:1005650088828C83E709F0A3DFFA8032E309F60875
:10057500DFFA8078E309F208DFFA807088828C83DD
:10058500E309F0A3DFFA806489828A83E0A3F60891
:10059500DFFA805889828A83E0A3F208DFFA804C6B
:1005A50080D280FA80C680D4806980F28033801042
:1005B50080A680EA809A80A880DA80E280CA8033AB
:1005C50089828A83ECFAE493A3C8C582C8CCC58323
:1005D500CCF0A3C8C582C8CCC583CCDFE9DEE780F3
:1005E5000D89828A83E493A3F608DFF9ECFAA9F072
:1005F500EDFB2289828A83ECFAE0A3C8C582C8CCC8
:10060500C583CCF0A3C8C582C8CCC583CCDFEADEE0
:10061500E880DB89828A83E493A3F208DFF980CC42
:1006250088F0EF60010E4E60C388F0ED2402B4043B
:100635000050B9F582EB2402B4040050AF232345E2
:0606450082239005A5735D
:10064B00BB010689828A83E0225002E722BBFE02AD
:09065B00E32289828A83E49322E0
:10066400BB010CE58229F582E5833AF583E022504B
:1006740006E92582F8E622BBFE06E92582F8E22295
:0D068400E58229F582E5833AF583E49322AF
:10069100BB010689828A83F0225002F722BBFE0148
:0206A100F32242
:1006A300F8BB010DE58229F582E5833AF583E8F08D
:1006B300225006E92582C8F622BBFE05E92582C839
:0206C300F22221
:1006C500C5F0F8A3E028F0C5F0F8E58215827002C0
:0606D5001583E038F0225D
:1006DB00BB0110E58229F582E5833AF583E0F5F05D
:1006EB00A3E0225009E92582F886F008E622BBFE3A
:1006FB000AE92582F8E2F5F008E222E5832AF58380
:08070B00E993F5F0A3E9932244
:1007130075F008758200EF2FFFEE33FECD33CDCC9D
:1007230033CCC58233C5829BED9AEC99E582984020
:100733000CF582EE9BFEED9AFDEC99FC0FD5F0D6FD
:10074300E4CEFBE4CDFAE4CCF9A88222B800C1B927
:100753000059BA002DEC8BF084CFCECDFCE5F0CB65
:10076300F97818EF2FFFEE33FEED33FDEC33FCEB9E
:1007730033FB10D703994004EB99FB0FD8E5E4F959
:10078300FA227818EF2FFFEE33FEED33FDEC33FC46
:10079300C933C910D7059BE99A4007EC9BFCE99A3A
:1007A300F90FD8E0E4C9FAE4CCFB2275F010EF2F7F
:1007B300FFEE33FEED33FDCC33CCC833C810D7077F
:1007C3009BEC9AE899400AED9BFDEC9AFCE899F8BA
:0E07D3000FD5F0DAE4CDFBE4CCFAE4C8F9224D
:0E07E100C3E49FFFE49EFEE49DFDE49CFC2229
:1007EF00EB9FF5F0EA9E42F0E99D42F0E89C45F060
:0107FF0022D7
:0C080000ECF0A3EDF0A3EEF0A3EFF0226B
:10080C00A8828583F0D083D0821208231208231289
:10081C000823120823E473E493A3C583C5F0C583AE
:10082C00C8C582C8F0A3C583C5F0C583C8C582C836
:01083C002299
:10083D00F8E0FBA3A3E0F925F0F0E5821582700244
:07084D001583E0FA38F022E8
:09085400EBF0A3EAF0A3E9F022A5
:10085D00D083D082F8E4937012740193700DA3A32A
:10086D0093F8740193F5828883E47374029368603E
:06087D00EFA3A3A380DF3E
:10243600EFB40A07740D122441740A309811A89952
:10244600B8130CC2983098FDA899C298B811F63006
:0724560099FDC299F59922DE
:10088300EF4E6012EF60010EEDBB010B89828A838C
:10089300F0A3DFFCDEFA2289F05007F709DFFCA999
:0C08A300F022BBFEFCF309DFFCA9F022F0
:10219C00021EEFE493A3F8E493A34003F68001F24C
:1021AC0008DFF48029E493A3F85407240CC8C33344
:1021BC00C4540F4420C8834004F456800146F6DF13
:1021CC00E4800B01020408102040809019C6E47EC4
:1021DC00019360BCA3FF543F30E509541FFEE49308
:1021EC00A360010ECF54C025E060A840B8E493A3CF
:1021FC00FAE493A3F8E493A3C8C582C8CAC583CAFA
:10220C00F0A3C8C582C8CAC583CADFE9DEE780BEB1
:011AFC0000E9
:00000001FF
